:020000040800F2
:1000000088070020BD190008B5030008B7030008E1
:10001000BB030008BF030008C30300080000000082
:10002000000000000000000000000000C7030008FE
:10003000C903000800000000CB030008CD0300083E
:10004000D7190008D7190008D7190008D7190008D0
:10005000D7190008D7190008D7190008D7190008C0
:10006000D7190008D7190008D7190008D7190008B0
:10007000D7190008D7190008D7190008D7190008A0
:10008000D7190008D7190008D7190008D719000890
:10009000D7190008D7190008D7190008D719000880
:1000A000D7190008D7190008D7190008D719000870
:1000B000D7190008D7190008D7190008D719000860
:1000C000D7190008D7190008D7190008D719000850
:1000D000D719000841070008D7190008D7190008E8
:1000E000D7190008D7190008D7190008D719000830
:1000F000D7190008D7190008D7190008D719000820
:10010000D7190008D7190008D7190008D71900080F
:10011000D7190008D7190008D7190008D7190008FF
:10012000D7190008D7190008D7190008D7190008EF
:1001300000F002F800F04DF80AA090E8000C8244AC
:100140008344AAF10107DA4501D100F042F8AFF289
:10015000090EBAE80F0013F0010F18BFFB1A43F0A5
:1001600001031847749A0000949A0000103A24BFC3
:1001700078C878C1FAD8520724BF30C830C144BF0C
:1001800004680C607047000000230024002500264E
:10019000103A28BF78C1FBD8520728BF30C148BFEA
:1001A0000B607047662908F0D680642906F07A81D2
:1001B000782906F0B181002070471FB506F0F8FCE1
:1001C00004000020002107F033FAE0601FBD10B5E5
:1001D00010BD06F0EBFD1146FFF7EFFF00F026F82B
:1001E00006F009FE03B4FFF7F2FF03BC00F04AFA81
:1001F0007CB54FF47840624908806248006807F097
:1002000049FE044622460B465FA1614806F00EF9FE
:100210005F4810210B465022CDE900106421962042
:1002200006F0B6F80020564908807CBD4FF4165001
:1002300000F037FA00F0BCF902F0EBFA012002F00E
:100240003BF9642000F0F1F901F090FC01F0D6FBDD
:1002500095E04C48006801F04AFCFFF7C9FF01F047
:10026000A5FC0446072C13D2DFE804F0880413230E
:100270003D566F0047494348006807F0C5FE07D860
:100280004FF07E513F48006807F030FE3D4908605E
:1002900074E04FF07E513B48006807F0B5FF07D887
:1002A0004FF07E513748006807F0E0FF354908609D
:1002B00064E03448006807F0EDFD05464FF0663213
:1002C000354B07F037FC0DD82E48006807F0E2FDEB
:1002D0000546324A324B07F0F3F9074607F0BEF9FC
:1002E000284908604AE02748006807F0D3FD054622
:1002F0002A4A2B4B07F0AEFC0DD82248006807F0C5
:10030000C9FD0546254A264B07F0DAFC074607F0EB
:10031000A5F91C49086031E01A48006807F0BAFDE9
:100320000546204A204B07F005FC0DD8154800680B
:1003300007F0B0FD05461D4A1D4B07F0C1F9074601
:1003400007F08CF90F49086018E00E48006807F0C4
:10035000A1FD0546154A164B07F07CFC0DD809484F
:10036000006807F097FD0546104A114B07F0A8FCFE
:10037000074607F073F90349086000BF00BF68E74C
:10038000360000200000002025352E3266000000D7
:100390003C0000200000984166E633409A99999904
:1003A0009999B93F3D0AD7A370FD33407B14AE47FE
:1003B000E17A843F704700BFFEE700BFFEE700BF61
:1003C000FEE700BFFEE770477047704770470000C8
:1003D0000CB50020019000906C48006840F480301B
:1003E0006A49086000BF6948006800F40030009066
:1003F0000198401C0190009818B90198B0F5A06FC1
:10040000F1D16248006800F4003010B10120009082
:1004100001E0002000900098012843D15C4800686A
:1004200040F010005A4908600846006820F00300B8
:1004300008600846006840F00200086053484068C1
:10044000524948600846406848600846406840F4A1
:10045000806048600846406820F47C104860084688
:10046000406840F4E81048600846006840F080703A
:10047000086000BF4548006800F000700028F9D00F
:100480004248406820F00300404948600846406800
:1004900040F00200486000BF3C48406800F00C009B
:1004A0000828F9D10CBD10B5FFF792FF10BD10B5AB
:1004B0003648006840F0010034490860084640684A
:1004C00034490840314948600846006832490840CC
:1004D0002E4908600846006820F48020086008461D
:1004E000406820F4FE0048604FF41F008860FFF76A
:1004F000DAFF4FF000602949086010BD10B50021F7
:1005000000200022214B5B6803F00C0121B104297B
:1005100006D0082928D107E0214B224C236027E090
:100520001F4B204C236023E0184B5B6803F47010D2
:10053000164B5B6803F48032022303EB904022B930
:10054000194B4343174C23600DE0104B5B6803F4D9
:10055000003323B1144B4343124C236003E0104B90
:100560004343104C236003E00D4B0E4C236000BF4F
:1005700000BF064B5B68C3F303130C4CE15C094BF3
:100580001B68CB40074C236010BD000000100240E8
:10059000002002400000FFF8FFFFF6FE08ED00E03B
:1005A00000127A000400002000093D00080000202D
:1005B00010B56FF0040000F058F92E4800682E497D
:1005C000B0FBF1F02D4908700846007800EB4001BF
:1005D000C1EBC0104FF6FF7101EAC0002849088046
:1005E00010BD0146254A12784A434FF0E0235A6174
:1005F00000229A611A46126942F001021A6100BF94
:100600004FF0E022106900F001021AB100F48032CC
:10061000002AF5D04FF0E022126922F001024FF0DB
:10062000E0231A6100229A6170470146144A128839
:100630004A434FF0E0235A6100229A611A46126938
:1006400042F001021A6100BF4FF0E022106900F091
:1006500001021AB100F48032002AF5D04FF0E022F6
:10066000126922F001024FF0E0231A6100229A6120
:10067000704700000400002000127A0018000020DB
:100680001A000020014600BF704700BF4B4A128885
:1006900002F04002002AF9D0C2B2484B1B1D1A805A
:1006A000704710B586B00446012144F2040000F002
:1006B0001BFE424800F0A6FA4FF40070ADF814009B
:1006C00003208DF8160018208DF8170005A93C4866
:1006D00000F04AF94FF48060ADF8140004208DF862
:1006E000170005A9364800F03FF925208DF80000D5
:1006F00003208DF801008DF8020001208DF8030021
:10070000684600F068F801940020ADF80800ADF8E4
:100710000A00ADF80C00ADF810000C20ADF80E008A
:1007200001A9264800F0B1FA012240F225512348E0
:1007300000F043FB0121214800F033FB06B010BD5F
:1007400010B540F225511D4800F01CFC10B31B48A9
:1007500000F098FBC4B21B48008800F40040C8B900
:100760001848008800F4804060B10A2C03D00020B3
:100770001449088020E01348008840F400401149E3
:10078000088019E00D2C06D10E48008840F4804006
:100790000C49088010E00B480088C0F30D000A499E
:1007A0000C5408480088401C064908800846008808
:1007B000C72801DD0020088010BD0000003801407E
:1007C0000008014020000020500000203149014372
:1007D000314A1160704770B5002100230F22C478A0
:1007E00004B32D4C246804F4E064C4F5E064210AE9
:1007F000C1F10403CA40447804FA03F18478144038
:1008000021430901254C0678A155047804F01F0501
:100810000124AC4005786D11AD0005F1E025C5F867
:10082000004109E0047804F01F050124AC401C4D90
:100830000678761145F8264070BD1A4A0A400243F0
:10084000154B1B1F1A60704739B1134A121D1268ED
:100850000243114B1B1D1A6006E00F4A121D12685D
:1008600082430D4B1B1D1A607047042808D14FF0BE
:10087000E021096941F004014FF0E022116107E035
:100880004FF0E021096921F004014FF0E0221161ED
:10089000704700000000FA050CED00E000E400E005
:1008A00080E100E080FFFF1F10B50446CC48844281
:1008B00008D10121042000F031FD0021042000F0C6
:1008C0002DFD46E0C748844208D10121082000F0F0
:1008D00025FD0021082000F021FD3AE0C2488442B5
:1008E00008D10121102000F019FD0021102000F096
:1008F00015FD2EE0BD48844208D10121202000F0E2
:100900000DFD0021202000F009FD22E0B8488442BE
:1009100008D10121402000F001FD0021402000F01D
:10092000FDFC16E0B348844208D10121802000F08C
:10093000F5FC0021802000F0F1FC0AE0AE48844282
:1009400007D10121801500F0E9FC0021A01500F07D
:10095000E5FC10BD10B50121084600F0DFFC0021C8
:10096000012000F0DBFC10BD2DE9F041024600251E
:100970000026002000230024002791F803C00CF07B
:100980000F0591F803C00CF0100CBCF1000F03D060
:1009900091F802C04CEA050591F800C0BCF1000FC7
:1009A00031D0146800202BE04FF0010C0CFA00F35A
:1009B000B1F800C00CEA03069E4220D183004FF03C
:1009C0000F0C0CFA03F7BC4305FA03FC4CEA0404D1
:1009D00091F803C0BCF1280F06D14FF0010C0CFABE
:1009E00000FCC2F814C00AE091F803C0BCF1480F43
:1009F00005D14FF0010C0CFA00FCC2F810C0401CED
:100A00000828D1D31460B1F800C0BCF1FF0F34DD69
:100A1000546800202EE000F1080C4FF0010808FA9D
:100A20000CF3B1F800C00CEA03069E4221D183000A
:100A30004FF00F0C0CFA03F7BC4305FA03FC4CEA29
:100A4000040491F803C0BCF1280F05D100F1080C93
:100A500008FA0CF8C2F8148091F803C0BCF1480FF2
:100A600007D100F1080C4FF0010808FA0CF8C2F8A1
:100A70001080401C0828CED35460BDE8F0814FF6AA
:100A8000FF710180022181700421C170704702460C
:100A9000002093680B400BB1012000E0002070475C
:100AA0000146886880B2704702460020D3680B4038
:100AB0000BB1012000E0002070470146C86880B2F9
:100AC000704701617047416170470AB1016100E000
:100AD00041617047C16070474FF480320A438261C0
:100AE0008161826182698269704702460020434BBE
:100AF00018684FF68073184040EA021008433F4BD5
:100B0000186070473E49C8617047F0B50A46002337
:100B100000240021002500F00046B6F1004F02D16C
:100B2000364EF16901E0354E7168C0F3034583B27A
:100B300000F44016B6F5401F08D121F070612F4E29
:100B4000766826F070662D4F7E6012E000F4801605
:100B5000B6F5801F06D1032606FA05F4A14341F03D
:100B6000706106E0460D360103FA06F6B14341F026
:100B7000706122B1460D360103FA06F6314300F0EA
:100B80000046B6F1004F02D11C4EF16101E01B4E50
:100B90007160F0BD30B500228B071C0F0F2303FAE4
:100BA00004F2164B08338C1053F824309343134C43
:100BB00008348D1044F8253023468C1053F8243027
:100BC0008C07240F00FA04F423430C4C08348D10D6
:100BD00044F8253030BD0A49DC3108607047000018
:100BE00000080140000C01400010014000140140C9
:100BF00000180140001C014000200140000001409D
:100C00000000204210B50446FB48844209D101216E
:100C1000880300F083FB00214FF4804000F07EFB4E
:100C200032E0F648844209D10121480400F083FBF8
:100C300000214FF4003000F07EFB25E0F0488442B4
:100C400009D10121880400F076FB00214FF48020B7
:100C500000F071FB18E0EB48844209D10121C8047F
:100C600000F069FB00214FF4002000F064FB0BE072
:100C7000E548844208D10121080500F05CFB002111
:100C80004FF4801000F057FB10BD2DE9F04786B0FF
:100C900005460E460024A24600BFA1460027B089A3
:100CA00000B100BF2F462C8A4CF6FF700440F0883C
:100CB00004432C82AC894EF6F3100440B08831898D
:100CC0000843718908430443AC81AC8A4FF6FF4066
:100CD0000440B0890443AC8201A800F098FAC648E9
:100CE000874202D1DDF810A001E0DDF80CA0A88950
:100CF00000F4004040B10AEBCA0000EB0A10316872
:100D00004900B0FBF1F807E00AEBCA0000EB0A105B
:100D100031688900B0FBF1F86420B8FBF0F0040101
:100D20002009642101FB1089A88900F4004040B12A
:100D3000322000EBC900B0FBF1F000F007000443E3
:100D400008E0322000EB09106421B0FBF1F000F064
:100D50000F0004432C8106B0BDE8F0874FF4165114
:100D6000016000218180C18001810C21418100212D
:100D70008181704710B502460020108A4FF2FF03B0
:100D800018400B884C8823438C882343CC8823430A
:100D90001843108210BD0021018041808180C180F4
:100DA000704721B1828942F40052828104E0828935
:100DB0004DF6FF731A4082817047F0B50346002458
:100DC00000260025002040F66A17B94200D100BF76
:100DD0001846C1F3421401F01F06012707FA06F571
:100DE000012C01D10C3004E0022C01D1103000E0C4
:100DF00014301AB107682F43076002E00768AF4359
:100E00000760F0BD1AB1838A0B43838202E0838AB4
:100E10008B4383827047028A4FF6F0731A40028236
:100E2000028A0A430282704782894FF2FF731A4096
:100E3000828182890A438281704721B1828942F08E
:100E40000202828104E082894FF6FD731A4082819A
:100E50007047028A4FF6DF731A400282028A0A4301
:100E60000282704721B1028A42F48042028204E089
:100E7000028A4BF6FF731A4002827047C1F30802E0
:100E80008280704701468888C0F3080070478189D6
:100E900041F0010181817047028BD2B20283028B43
:100EA00042EA012202837047028B02F47F420283EE
:100EB000028B0A430283704721B1828A42F02002EA
:100EC000828204E0828A4FF6DF731A408282704782
:100ED00021B1828A42F01002828204E0828A4FF6B7
:100EE000EF731A408282704721B1828A42F0080271
:100EF000828204E0828A4FF6F7731A40828270473A
:100F000021B1828942F40042828103E08289C2F3E6
:100F10000E028281704721B1828A42F4006282828D
:100F200004E0828A4FF2FF731A4082827047828AFD
:100F30004FF6FB731A408282828A0A43828270478C
:100F400021B1828A42F00202828204E0828A4FF654
:100F5000FD731A408282704702460020B1F5007F7F
:100F600000D100BF13880B400BB1012000E000202E
:100F7000704701F40072B2F5007F00D100BFCA4390
:100F80000280704770B5024600240023002500202F
:100F900040F66A16B14200D100BFC1F3421501F01C
:100FA0001F03012606FA03F3012D02D1968933406F
:100FB00006E0022D02D1168A334001E0968A3340C2
:100FC0000C12012606FA04F41688344013B10CB151
:100FD000012000E0002070BD10B50022002340F683
:100FE0006A14A14200D100BF0A1201249440A3B2A6
:100FF000DC43048010BD0000003801400044004084
:1010000000480040004C004000500040DF480068AD
:1010100040F00100DD49086008464068DC490840AE
:10102000DA49486008460068DA490840D74908604C
:101030000846006820F4802008600846406820F4D4
:10104000FE0048604FF41F0088607047CF49096870
:1010500021F48031CD4A11601146096821F48021C4
:101060001160B0F5803F03D0B0F5802F0ED106E0BF
:10107000C649096841F48031C44A116007E0C34998
:10108000096841F4A021C14A116000E000BF00BF1F
:10109000704710B501460022002300204A11012AA2
:1010A00002D1BA4C236806E0022A02D1B74C236A67
:1010B00001E0B64C636A01F01F02012494401C4019
:1010C0000CB1012000E0002010BD38B500200090D8
:1010D0000024002500BF3120FFF7DBFF0546009804
:1010E000401C00900098B0F5A06F01D0002DF2D008
:1010F0003120FFF7CEFF08B1012400E00024204694
:1011000038BD01460020A14A106820F0F80040EAEE
:10111000C10010607047A049086070470246002077
:101120009A4B586820F47C1042EA01031843974B0D
:101130005860704798490866704701460020934AF6
:10114000506820F003000843506070478F484068A3
:1011500000F00C007047014600208C4A506820F0D7
:10116000F00008435060704701460020874A5068ED
:1011700020F4E06008435060704701460020834A35
:10118000506820F4605040EAC1005060704729B1B7
:101190007E4A527A02437D4B5A7204E07B4A527A6D
:1011A00082437A4B5A7270477B49D8310860704746
:1011B00001460020754A506820F4404008435060C2
:1011C00070470021714A20321170704A82F8201055
:1011D000012802D004280AD104E001216B4A203200
:1011E000117005E00521694A2032117000E000BF4E
:1011F00000BF70476949086070476449096A014344
:10120000624A11627047654944390860704730B5D9
:1012100000210022002400235C4D6D6805F00C01C4
:1012200021B1042905D0082923D105E05C4D0560D2
:1012300022E05B4D05601FE0544D6D6805F47012AF
:10124000524D6D6805F48034022505EB92421CB9BD
:10125000544D554305600BE04C4D6D6805F4003569
:101260001DB1504D5543056002E04D4D554305609D
:1012700002E04B4D056000BF00BF444D6D6805F0B6
:10128000F0010909484D6B5C0568DD4045603F4D44
:101290006D6805F4E061090A434D6B5C4568DD400B
:1012A00085603A4D6D6805F46051C90A3E4D6B5C2E
:1012B0004568DD40C560354D6D6805F44041890BDA
:1012C0003A4D6B5CC568B5FBF3F5056130BD29B1DE
:1012D0002E4A526902432D4B5A6104E02B4A52694F
:1012E00082432A4B5A61704729B1284A92690243C6
:1012F000264B9A6104E0254A92698243234B9A6106
:10130000704729B1214AD2690243204BDA6104E0D7
:101310001E4AD26982431D4BDA61704729B11B4ACC
:10132000D2680243194BDA6004E0184AD26882435B
:10133000164BDA60704729B1144A12690243134B05
:101340001A6104E0114A12698243104B1A61704716
:1013500012494039086070470F49C86470470B490B
:10136000C87170470948406A40F080700749486278
:10137000704701460020054A92680A400AB10120E0
:1013800000E0002070470149887270470010024059
:101390000000FFF8FFFFF6FE0000424280044242D8
:1013A00000127A0000093D002200002032000020D7
:1013B00030B943F2DB028100A1F1C0410A6005E0CF
:1013C00043F2D2028100A1F1C0410A606FF0704285
:1013D000411C8900A1F1C0410A608100A1F1C04116
:1013E000C1F80421704710280AD118214FF020427B
:1013F0001166402151664FF0FC319166D16610E0D4
:101400001821F74A116040214FF02042C2F88410A1
:101410004FF0FC31F24A083211604FF02042C2F81E
:101420008C1070471820EE49203108600020090612
:10143000C1F8A4004FF0FC30E94928310860091DCB
:101440000860091D08607047D0E901121143C268A5
:101450001143026911434269114382691143C26910
:101460001143026A1143426A1143826A1143C26AFC
:101470001143026B114302689200A2F1C042116055
:10148000816808290BD101688900A1F1C041096870
:1014900041F0400201688900A1F1C0410A60416B3E
:1014A0000968426B526841EA0211426B926841EA54
:1014B0000221426B928941EA0241426B128A41EA5F
:1014C0000251426B127D41EA0261426B9269114303
:1014D0000268521C9200A2F1C0421160C16AB1F5CB
:1014E000804F1BD1816B0968826B526841EA0211FF
:1014F000826B926841EA0221826B128A41EA0251B0
:10150000826B127D41EA0261826B9269114302682B
:101510009200A2F1C042C2F8041107E06FF07042DD
:1015200001688900A1F1C041C1F80421704730B5BC
:10153000002100220023446844F0080485682C43FD
:10154000C5682C4305692C43456944EA45248569EF
:1015500044EA4531C4692468C5696D6844EA0524D4
:10156000C5692D8944EA0544C5692D7B44EA0562B5
:10157000046A2468056A6D6844EA0524056A2D89B1
:1015800044EA0544056A2D7B44EA05630468102C8F
:1015900005D14FF020442166A266E36608E0904C36
:1015A00021604FF02044C4F888208D4C0C34236017
:1015B00030BD016841F01001426841EA4221826871
:1015C00041EA4231864A20321160C1680968C26826
:1015D000526841EA0221C268128941EA0241C268A6
:1015E000127B41EA02617E4A283211600169096872
:1015F0000269526841EA02210269128941EA024104
:101600000269127B41EA0261754A2C32116041691C
:1016100009684269526841EA02214269128941EA35
:1016200002414269127B41EA02614FF02042C2F856
:10163000B0107047002101600221416000218160EB
:10164000C160016141618161C16101624FF48051FA
:101650004162490081620021C16201630F21426B36
:101660001160426B5160FF21426B91600F21426B10
:10167000D160426B1161426B51610021426B9161FB
:101680000F21826B1160826B5160FF21826B916030
:101690000F21826BD160826B1161826B51610021DD
:1016A000826B91617047102101600021416081606F
:1016B000C160016141618161FC21C2691160C2693F
:1016C0005160C2699160C269D160026A1160026AA8
:1016D0005160026A9160026AD16070470021016026
:1016E00041608160FC21C2681160C2685160C268BB
:1016F0009160C268D160026911600269516002693B
:1017000091600269D1604269116042695160426929
:1017100091604269D160704751B18200A2F1C0422C
:10172000126842F001038200A2F1C042136009E096
:101730008200A2F1C04212682A4B1A408300A3F132
:10174000C0431A60704799B1102808D14FF0204269
:10175000126E42F004024FF020431A661DE0204A48
:10176000126842F004024FF02043C3F8802014E0D6
:10177000102809D14FF02042126E1A4BDB1E1A407E
:101780004FF020431A6608E0154A1268154BDB1E1D
:101790001A404FF02043C3F88020704748B11049E9
:1017A0002031096841F004014FF02042C2F8A01036
:1017B00009E00B49203109680A4AD21E11404FF056
:1017C0002042C2F8A0107047B9B110280CD14FF0D8
:1017D0002042126E42F040024FF020431A661FE092
:1017E000800000A0FEFF0F00724A126842F0400223
:1017F0004FF02043C3F8802012E0102808D14FF0AA
:101800002042126E6C4B1A404FF020431A6607E0DC
:10181000684A1268684B1A404FF02043C3F8802092
:10182000704701460020102903D14FF02042506F2D
:1018300002E0604A14321068704710B5F2B1102807
:1018400007D14FF020435B6E0B434FF0204463669B
:1018500032E0B0F5807F08D1564B1B1D1B680B434F
:101860004FF02044C4F8843026E0524B24331B68E8
:101870000B434FF02044C4F8A4301DE0102807D1DA
:101880004FF020435B6E8B434FF02044636613E0C0
:10189000B0F5807F08D1474B1B1D1B688B434FF071
:1018A0002044C4F8843007E0424B24331B688B4348
:1018B0004FF02044C4F8A43010BD10B502460020FB
:1018C0000023102A03D14FF02044636E09E0B2F5E3
:1018D000807F03D1374C241D236802E0354C24342B
:1018E000236803EA01040CB1012000E0002010BDD0
:1018F000102807D14FF02042526E8A434FF0204308
:101900005A6613E0B0F5807F08D12A4A121D12688A
:101910008A434FF02043C3F8842007E0254A24324D
:1019200012688A434FF02043C3F8A420704770B573
:1019300002460020002300240025102A03D14FF086
:101940002046736E09E0B2F5807F03D1194E361D33
:10195000336802E0174E2436336803EA010403EAD1
:10196000D10514B10DB1012000E0002070BD102898
:1019700008D14FF02042526E22EAD1024FF02043AC
:101980005A6615E0B0F5807F09D10A4A121D126827
:1019900022EAD1024FF02043C3F8842008E0054A30
:1019A0002432126822EAD1024FF02043C3F8A42067
:1019B00070470000800000A0BFFF0F00094880476B
:1019C00009480047FEE7FEE7FEE7FEE7FEE7FEE721
:1019D000FEE7FEE7FEE7FEE704480549054A064B39
:1019E00070470000AF0400083101000888010020A2
:1019F00088070020880300208803002008B5012103
:101A00000802FFF771FC4FF46040ADF800001020B1
:101A10008DF8030003208DF8020069464B48FEF75D
:101A2000A3FF00204A49086001204A49C1F8BC01CF
:101A300000204749091D086008BD70B506464FF4EF
:101A4000004500204249083108604249C1F8B4010C
:101A50000A20FEF7C6FD00241AE001203C49086078
:101A60000A20FEF7BEFD06EA050020B10120384934
:101A7000091D086003E000203549091D08606D104C
:101A80000020334908600A20FEF7ABFD601C84B2D9
:101A90000F2CE2DD0A20FEF7A4FD01202C490831BD
:101AA000086070BD70B5044600254FF4805525438D
:101AB0002846FFF7C2FF70BD2DE9F04704464FF0FE
:101AC0008B41204606F0D4FA824606F0E3F9074639
:101AD0004FF06632204B05F0A7FE054605F0FCFFEF
:101AE0001FFA80F94846FFF7DDFFBDE8F0872DE9D2
:101AF000F0470446204606F0CDF907463A460B4625
:101B00000020164905F090FE054605F0E5FF1FFA96
:101B100080F94846FFF7C6FFBDE8F08770B5054677
:101B20004FF08B41284606F0A3FA064606F04CFA21
:101B300084B2B4F5805F01D1601E84B22046FFF705
:101B4000B1FF214606A004F065FC70BD00200140F5
:101B5000B40124420000244266660A400000B040FE
:101B60002564202020200A090000000008B501217A
:101B70008020FFF7B9FB0F20ADF8000010208DF892
:101B8000030003208DF8020069466948FEF7ECFE69
:101B9000F020ADF8000028208DF8030003208DF818
:101BA000020069466248FEF7DFFE08BD10B56048D6
:101BB0000C30006840F00F005D490C3108600846A9
:101BC00000684FF60F71084059490C310860081F32
:101BD000006800F0F00008B9002010BD0520FEF7F5
:101BE00024FD53480830006800F0F00008B90020D8
:101BF000F3E74F480C3000684FF6F0721040411C7C
:101C00004B48FEF767FF4A480830006800F0F000D4
:101C1000102806D0202806D0402806D0802808D1D9
:101C200005E0012405E0022403E0032401E004248C
:101C300000BF00BF3E480C3000684FF6F072104005
:101C4000811C3B48FEF746FF39480830006800F029
:101C5000F000102806D0202806D0402806D0802882
:101C600008D105E0052405E0062403E0072401E08F
:101C7000082400BF00BF2E480C3000684FF6F072F9
:101C80001040011D2A48FEF725FF2948083000684A
:101C900000F0F000102806D0202806D0402806D0FA
:101CA000802808D105E0092405E00A2403E00B247C
:101CB00001E00C2400BF00BF1D480C3000684FF647
:101CC000F072104040F008011948FEF703FF184871
:101CD0000830006800F0F000102806D0202806D058
:101CE000402806D0802808D105E00D2405E00E2408
:101CF00003E00F2401E0102400BF00BF0C480C30AB
:101D0000006840F00F000A490C310860084600687E
:101D10004FF60F71084006490C31086000BF0448B7
:101D20000830006800F0F0000028F8D1E0B254E775
:101D3000001C014001B5BDF800000090BDF8000096
:101D4000F749088008BD01B5BDF800000090BDF856
:101D50000000F349891C088008BD08B5F048801CC4
:101D600000880090BDF8000008BD03B5BDF8000074
:101D7000EB490880BDF80400891C08800CBD01B542
:101D8000BDF80000FFF7D6FF0520FEF72AFCFFF79D
:101D9000E4FF08BDE3480089E14908807047E04955
:101DA000891C0880704730B5014601F01F04C1F35B
:101DB0004513CA0AE50205EB43151544A8B230BD28
:101DC00000BF0100A0F10102D0B2FAD1704730B5D6
:101DD00004460D46D348808849F24131884205D0F7
:101DE000D048808845F21031884214D1CD494889C5
:101DF000FFF7A0FF2012FFF7A6FFE0B2FFF7A3FF57
:101E0000C8498889FFF796FF2812FFF79CFFE8B2C0
:101E1000FFF799FF5DE0C348808846F604018842D9
:101E20001DD1C0488079012804D1BE480088401ED9
:101E3000001B84B2BB494889FFF77CFF2012FFF7E3
:101E400082FFE0B2FFF77FFFB6498889FFF772FF94
:101E50002812FFF778FFE8B2FFF775FF39E0B148C5
:101E6000808845F21051884220D1AE494889FFF759
:101E700061FF2012FFF767FFAA494989491C88B210
:101E8000FFF758FFE0B2FFF75EFFA6498889FFF72A
:101E900051FF2812FFF757FFA2498989491C88B2D0
:101EA000FFF748FFE8B2FFF74EFF12E09D48807948
:101EB000012804D19B480088401E001B84B2994928
:101EC00048892146FFF751FF964988892946FFF73F
:101ED0004CFF30BD3EB504460D46002002900190F7
:101EE000009090480088A04203DD8E484088A842B8
:101EF00001DC00203EBD29462046FFF768FF8948E7
:101F0000808849F2413188420BD08648808846F665
:101F10000401884205D08348808845F21031884208
:101F200003D12E20FFF706FF0DE07E48808845F2A2
:101F30001051884204D14FF43850FFF7FBFE02E005
:101F40002220FFF7F7FE7748808849F22031884247
:101F500002D10220FFF734FFFFF7FFFE0220FFF758
:101F60002FFFFFF7FAFE02906E48808849F2413158
:101F700088420BD06B48808845F21031884205D0EA
:101F80006848808845F21051884210D10220FFF73E
:101F900017FFFFF7E2FE0090BDF80800C0B2019005
:101FA000BDF804004FF6FF7101EA002001905D4882
:101FB000808849F22531884216D05A48808844F2F8
:101FC0003551884210D057488088091F88420BD06D
:101FD000544880884BF20551884205D0514880888A
:101FE0004CF20551884202D1BDF8080082E74D4805
:101FF000808849F2413188420BD04A48808845F2B6
:102000001031884205D04748808845F210518842F7
:102010000DD1BDF80800C012C002BDF8041089122D
:1020200040EA4110BDF8001040EAE12062E7BDF847
:102030000800FFF7B8FE5DE700B53A48808849F22E
:10204000413188420BD03748808846F604018842E7
:1020500005D03448808845F21031884203D12920C8
:10206000FFF768FE0FE02F48808845F21051884244
:1020700004D14FF42450FFF75DFE04E040F27311E9
:102080000720FFF772FE00BD00B52648808849F2A0
:10209000413188420BD02348808846F604018842AB
:1020A00005D02048808845F21031884203D128208D
:1020B000FFF740FE0EE01B48808845F21051884231
:1020C00004D14FF42050FFF735FE03E00021072034
:1020D000FFF74BFE00BDF0B5054600240027114870
:1020E0008079012823D10F48808846F60401884270
:1020F0001DD0082D1AD2DFE805F00406080A0C0EE0
:102100001017062512E0072510E004250EE005252E
:102110000CE001250AE0002508E0032506E00000A8
:10212000FE07006C18010020022500BF00BFFE481A
:10213000808849F24131884211D0FB48808846F6B8
:10214000040188420BD0F848808845F2103188425B
:1021500005D0F548808845F2105188427ED1082D7F
:102160001CD2DFE805F00406090C0F12151800BF99
:1021700014E044F0800411E044F040040EE044F028
:10218000C0040BE044F0200408E044F0600405E0E3
:1021900044F0A00402E044F0E00400BF00BFE248C5
:1021A000808845F21051884202D14FF4585700E020
:1021B0003627DD48808845F21031884207D0DA485A
:1021C000808845F21051884201D044F00804D64876
:1021D000808846F60401884201D144F00204214679
:1021E0003846FFF7C2FD04F0200068B1CE480088F1
:1021F000CD494988884214DACB4806884088CA49C4
:102200000880084646800CE0C7480088C6494988CF
:10221000884206DDC44806884088C34908800846CD
:102220004680C148808845F21051884254D1BE4949
:102230004889FFF77FFD0020FFF785FDBA494989EE
:10224000491C88B2FFF776FD0020FFF77CFDB649F8
:102250004989891C88B2FFF76DFD00E06BE0B24947
:102260000988491EC1F30F20FFF76DFDAE4949896A
:10227000C91C88B2FFF75EFDAB490978491EC8B298
:10228000FFF761FDA8498889FFF754FD0020FFF79B
:102290005AFDA5498989491C88B2FFF74BFD0020EA
:1022A000FFF751FDA0498989891C88B2FFF742FDDB
:1022B0009D494988491EC1F30F20FFF744FD9A4903
:1022C0008989C91C88B2FFF735FD97498978491E6D
:1022D000C8B2FFF738FD55E093494889FFF72AFD5A
:1022E0000020FFF730FD0020FFF72DFD8E49098803
:1022F000491EC1F30F20FFF726FD8B490978491EBF
:10230000C8B2FFF720FD88498889FFF713FD002038
:10231000FFF719FD0020FFF716FD83494988491E84
:10232000C1F30F20FFF70FFD7F498978491EC8B21E
:10233000FFF709FD26E0082D1CD2DFE805F00407B1
:102340000A0D0F12151844F0300413E044F0100485
:1023500010E044F020040DE000BF0BE044F038042E
:1023600008E044F0280405E044F0180402E044F0DA
:10237000080400BF00BF032744F4805421463846B8
:10238000FFF7F3FCF0BD30B504460D462946204664
:10239000FFF71DFDFFF7FEFC6448008864490880D4
:1023A00030BD70B504460D4616465F48808849F238
:1023B0004131884205D05C48808845F2103188421E
:1023C00014D159494889FFF7B5FC2012FFF7BBFC2F
:1023D000E0B2FFF7B8FC54498889FFF7ABFC28123C
:1023E000FFF7B1FCE8B2FFF7AEFC5DE04E48808835
:1023F00045F21051884220D14B494889FFF79AFC99
:102400002012FFF7A0FC48494989491C88B2FFF710
:1024100091FCE0B2FFF797FC43498889FFF78AFCFB
:102420002812FFF790FC40498989491C88B2FFF7C0
:1024300081FCE8B2FFF787FC36E03B48808846F62F
:10244000040188421DD138488079012804D13648DA
:102450000088401E001B84B233494889FFF76AFC9C
:102460002012FFF770FCE0B2FFF76DFC2E4988895F
:10247000FFF760FC2812FFF766FCE8B2FFF763FC89
:1024800012E029488079012804D127480088401E9D
:10249000001B84B2244948892146FFF766FC224983
:1024A00088892946FFF761FC1F4800892049891E59
:1024B0000880881C068070BD10B50446002C58D1D9
:1024C00019498871F02008804FF4A07048800846B0
:1024D000808849F2413188420BD01348808846F603
:1024E0000401884205D01048808845F210318842A6
:1024F00020D12C200C4908812A2048812B2088815A
:102500000846808846F60401884205D0064880883F
:1025100045F21031884206D14FF4A070024908807C
:102520004FF4F07048807FE0180100203600002052
:102530000008006CFE48808845F21051884210D196
:102540004FF43050FA4908814FF4285048814FF435
:102550002C5088814FF4F07008804FF44870488008
:1025600062E02220F24908812020488121208881D0
:102570005AE00120EE4988714FF4A0700880F020E5
:1025800048800846808849F24131884205D0E848B1
:10259000808845F21031884207D12C20E449088117
:1025A0002A2048812B2088812BE0E148808846F64C
:1025B0000401884207D12C20DD4908812B20488165
:1025C0002A2088811DE0DA48808845F2105188422F
:1025D00010D14FF43050D64908814FF4285048812B
:1025E0004FF42C5088814FF4487008804FF4F070FD
:1025F000488006E02220CE49088121204881202001
:102600008881CB48808846F60401884205D0C848B6
:10261000808845F21031884206D14FF4F070C449E9
:1026200008804FF4A07048800020FFF754FD10BDD3
:102630002DE9FF4F04460D4616461F46A019401EC1
:1026400086B2E819401E87B2B948808849F2413104
:1026500088420BD0B648808845F21031884205D0B8
:10266000B348808846F60401884220D1B0494889A1
:10267000FFF760FB2012FFF766FBE0B2FFF763FB9A
:102680003012FFF760FBF0B2FFF75DFBA8498889C5
:10269000FFF750FB2812FFF756FBE8B2FFF753FB9A
:1026A0003812FFF750FBF8B2FFF74DFB7DE0A04872
:1026B000808845F21051884244D19D494889FFF7EE
:1026C00039FB2012FFF73FFB99494989491C88B221
:1026D000FFF730FBE0B2FFF736FB95494989891CCB
:1026E00088B2FFF727FB3012FFF72DFB904949898D
:1026F000C91C88B2FFF71EFBF0B2FFF724FB8C4920
:102700008889FFF717FB2812FFF71DFB8849898985
:10271000491C88B2FFF70EFBE8B2FFF714FB8449AF
:102720008989891C88B2FFF705FB3812FFF70BFB7C
:102730007F498989C91C88B2FFF7FCFAF8B2FFF714
:1027400002FB32E07A48807901280ED1A846B946CA
:1027500077480088801B401E1FFA80FA7448008862
:10276000001B401E1FFA80FB03E0A046B146AA46AC
:10277000BB465020039051200290522001905320DC
:10278000009041460398FFF7F0FA49460298FFF798
:10279000ECFA51460198FFF7E8FA59460098FFF71E
:1027A000E4FA29462046FFF712FBBDE8FF8F70B51B
:1027B000044600265E480588408845435C4880887A
:1027C00046F60401884216D159488079012812D171
:1027D0000020574988712A2048812B2088810021B8
:1027E0000846FFF7F4FA0120514988712B204881EF
:1027F0002A20888103E000210846FFF7E8FAFFF766
:10280000C9FA002602E04B480480761CAE42FAD397
:1028100070BD10B59EB0002401210802FEF757FDDF
:10282000012140F26910FEF75FFD0120ADF8740050
:1028300010208DF8770003208DF876001DA93E4802
:10284000FEF792F84CF23370ADF8740018208DF852
:10285000770003208DF876001DA93848FEF784F82C
:102860004FF68070ADF8740018208DF877000320C3
:102870008DF876001DA93248FEF776F841F2010086
:10288000ADF8740018208DF8770003208DF87600DD
:102890001DA92C48FEF768F8012007900020089039
:1028A0000F20099000200A900B900C900D90009042
:1028B0000190032002900020039004900590069060
:1028C00006200E9000200F901090102011900020F4
:1028D000129014901390159016904FF4805017900A
:1028E000002018904FF48040199000201A9007A8FB
:1028F0001B90CDF870D00EA8FEF7A6FD0121062092
:10290000FEF70AFF3220FDF790FE01210020FFF7BD
:102910002CFA3220FDF789FE0020FFF730FA044937
:10292000888008468088FF2817DB084680880BE0EF
:10293000180100200008006C000C01400014014048
:1029400000180140002001404FF6FF71884204D07A
:10295000FE488088B0F5134F7ED1D320FFF7EAF907
:10296000FFF7FBF9F9498880FFF7F7F9F749888005
:10297000FFF7F3F9F5498880084680884FF6FF7124
:1029800001EA0020F1498880FFF7E7F9EF498988DB
:102990000843EE4988800846808849F241318842E0
:1029A00078D0BF20FFF7C6F9FFF7D7F9E74988804D
:1029B000FFF7D3F9E5498880FFF7CFF9E34988802D
:1029C000FFF7CBF9E1498880084680884FF6FF7110
:1029D00001EA0020DD498880FFF7BFF9DB498988DB
:1029E0000843DA4988800846808846F60401884210
:1029F00050D0D420FFF79EF9FFF7AFF9D349888074
:102A0000FFF7ABF9D1498880FFF7A7F9CF49888054
:102A1000084680884FF6FF7101EA0020CB49888084
:102A2000FFF79BF9C94989880843C8498880084647
:102A3000808845F2103188422CD04FF45A40FFF77D
:102A400079F9FFF78AF9C14988804FF45B40FFF7B5
:102A500071F9FFF782F900E01CE0BC498880084664
:102A600080884FF6FF7101EA0020B84988804FF452
:102A70005C40FFF75FF9FFF770F9B44989880843B4
:102A8000B249888008468088B0F5004F02D145F2EF
:102A900010508880AD48808849F2413188420BD07F
:102AA000AA48808845F21031884205D0A74880881E
:102AB00045F2105188421DD1A548006820F00F0052
:102AC0004FF02041C1F81C010846D0F81C0120F449
:102AD0007060C1F81C010846D0F81C0140F00300EA
:102AE000C1F81C010846D0F81C0140F40070C1F880
:102AF0001C0128E09548808846F60401884205D0EC
:102B0000924880884CF2055188421CD19048006858
:102B100020F00F004FF02041C1F81C010846D0F80A
:102B20001C0120F47060C1F81C010846D0F81C019B
:102B300040F00A00C1F81C010846D0F81C0140F41E
:102B40004060C1F81C018148818882A003F062FCCA
:102B50007E48808849F2413188427DD1CF20FFF7FD
:102B6000E9F80020FFF7EFF8641CC120FFF7EBF84D
:102B70003020FFF7E8F8ED20FFF7DCF86420FFF7DE
:102B8000E2F80320FFF7DFF81220FFF7DCF88120DE
:102B9000FFF7D9F8E820FFF7CDF88520FFF7D3F845
:102BA0001020FFF7D0F87A20FFF7CDF8CB20FFF701
:102BB000C1F83920FFF7C7F82C20FFF7C4F8002030
:102BC000FFF7C1F83420FFF7BEF80220FFF7BBF88B
:102BD000F720FFF7AFF82020FFF7B5F8EA20FFF75E
:102BE000A9F80020FFF7AFF80020FFF7ACF8C020ED
:102BF000FFF7A0F81B20FFF7A6F8C120FFF79AF80F
:102C00000120FFF7A0F8C520FFF794F83020FFF768
:102C10009AF83020FFF797F8C720FFF78BF8B72016
:102C2000FFF791F83620FFF785F84820FFF78BF87B
:102C30003A20FFF77FF85520FFF785F8B120FFF71E
:102C400079F80020FFF77FF81A20FFF77CF8B6200C
:102C5000FFF770F80A2000E0A6E0FFF774F8A22062
:102C6000FFF771F8F220FFF765F80020FFF76BF827
:102C70002620FFF75FF80120FFF765F8E020FFF757
:102C800059F80F20FFF75FF82A20FFF75CF828209B
:102C9000FFF759F80820FFF756F80E20FFF753F812
:102CA0000820FFF750F85420FFF74DF8A920FFF750
:102CB0004AF84320FFF747F80A20FFF744F80F20AF
:102CC000FFF741F80020FFF73EF80020FFF73BF840
:102CD0000020FFF738F80020FFF735F8E120FFF774
:102CE00029F80020FFF72FF81520FFF72CF8172000
:102CF000FFF729F80720FFF726F81120FFF723F840
:102D00000620FFF720F82B20FFF71DF85620FFF7CD
:102D10001AF83C20FFF717F80520FFF714F81020E9
:102D2000FFF711F80F20FFF70EF83F20FFF70BF821
:102D30003F20FFF708F80F20FFF705F82B20FEF7DC
:102D4000F9FF0020FEF7FFFF00200BE01801002034
:102D50001C0100A0204C43442049443A25780D0A28
:102D600000000000FEF7EFFF0120FEF7ECFF3F2020
:102D7000FEF7E9FF2A20FEF7DDFF0020FEF7E3FF64
:102D80000020FEF7E0FF0020FEF7DDFFEF20FEF75A
:102D9000DAFF1120FEF7CEFF7820FDF746FC292050
:102DA000FEF7C8FF03F05CB8FE48808846F60401D1
:102DB00088427CD11120FEF7BDFF1420FDF735FCC1
:102DC000D020FEF7B7FF0720FEF7BDFF4220FEF739
:102DD000BAFF1D20FEF7B7FFD120FEF7ABFF0020A2
:102DE000FEF7B1FF1A20FEF7AEFF0920FEF7ABFF9A
:102DF000D220FEF79FFF0120FEF7A5FF2220FEF75D
:102E0000A2FFC020FEF796FF1020FEF79CFF3B209C
:102E1000FEF799FF0020FEF796FF0220FEF793FFD2
:102E20001120FEF790FFC520FEF784FF0320FEF778
:102E30008AFFC820FEF77EFF0020FEF784FF2520D2
:102E4000FEF781FF2120FEF77EFF0520FEF77BFFC6
:102E50000020FEF778FF0A20FEF775FF6520FEF7D9
:102E600072FF2520FEF76FFF7720FEF76CFF5020E2
:102E7000FEF769FF0F20FEF766FF0020FEF763FFF5
:102E8000F820FEF757FF0120FEF75DFFFE20FEF75A
:102E900051FF0020FEF757FF0220FEF754FF2020CD
:102EA000FEF748FF3620FEF745FF082000E02CE043
:102EB000FEF749FF3A20FEF73DFF5520FEF743FF9E
:102EC0002B20FEF737FF0020FEF73DFF0020FEF726
:102ED0003AFF0120FEF737FF3F20FEF734FF2A209C
:102EE000FEF728FF0020FEF72EFF0020FEF72BFF45
:102EF0000120FEF728FFDF20FEF725FF7820FDF7F1
:102F000094FB2920FEF716FF4CE7A648808845F27F
:102F10001031884240F07C87ED20FEF70BFF012046
:102F2000FEF711FFFE20FEF70EFFEE20FEF702FF78
:102F3000DE20FEF708FF2120FEF705FFF120FEF757
:102F4000F9FE0120FEF7FFFEDF20FEF7F3FE102062
:102F5000FEF7F9FEC420FEF7EDFE8F20FEF7F3FE2C
:102F6000C620FEF7E7FE0020FEF7EDFEE220FEF7AA
:102F7000EAFEE220FEF7E7FEE220FEF7E4FEBF20D5
:102F8000FEF7D8FEAA20FEF7DEFEB020FEF7D2FE46
:102F90000D20FEF7D8FE0020FEF7D5FE0D20FEF72F
:102FA000D2FE0020FEF7CFFE1120FEF7CCFE00205F
:102FB000FEF7C9FE1920FEF7C6FE0020FEF7C3FE8D
:102FC0002120FEF7C0FE0020FEF7BDFE2D20FEF7FB
:102FD000BAFE0020FEF7B7FE3D20FEF7B4FE00204B
:102FE000FEF7B1FE5D20FEF7AEFE0020FEF7ABFE61
:102FF0005D20FEF7A8FE0020FEF7A5FEB120FEF73B
:1030000099FE8020FEF79FFE0020FEF79CFE8B209D
:10301000FEF799FE0020FEF796FE9620FEF793FE3F
:103020000020FEF790FEB220FEF784FE0020FEF79F
:103030008AFE0020FEF787FE0220FEF784FE0020B5
:10304000FEF781FE0320FEF77EFE0020FEF77BFEEA
:10305000B320FEF76FFE0020FEF775FE0020FEF79E
:1030600072FE0020FEF76FFE0020FEF76CFE0020CF
:10307000FEF769FE0020FEF766FE0020FEF763FE05
:103080000020FEF760FE0020FEF75DFE0020FEF748
:103090005AFE0020FEF757FE0020FEF754FE0020E7
:1030A000FEF751FE0020FEF74EFE0020FEF74BFE1D
:1030B0000020FEF748FE0020FEF745FE0020FEF748
:1030C00042FE0020FEF73FFE0020FEF73CFE0020FF
:1030D000FEF739FE0020FEF736FE0020FEF733FE35
:1030E0000020FEF730FEB420FEF724FE8B20FEF712
:1030F0002AFE0020FEF727FE9620FEF724FE002081
:10310000FEF721FEA120FEF71EFE0020FEF71BFEAB
:10311000B520FEF70FFE0220FEF715FE0020FEF799
:1031200012FE0320FEF70FFE0020FEF70CFE042027
:10313000FEF709FE0020FEF706FEB620FEF7FAFDB8
:103140000020FEF700FE0020FEF7FDFDB720FEF791
:10315000F1FD0020FEF7F7FD0020FEF7F4FD3F2013
:10316000FEF7F1FD0020FEF7EEFD5E20FEF7EBFD21
:103170000020FEF7E8FD6420FEF7E5FD0020FEF7E5
:10318000E2FD8C20FEF7DFFD0020FEF7DCFDAC2029
:10319000FEF7D9FD0020FEF7D6FDDC20FEF7D3FDBB
:1031A000002001E018010020FEF7CDFD7020FEF7A1
:1031B000CAFD0020FEF7C7FD9020FEF7C4FD0020E9
:1031C000FEF7C1FDEB20FEF7BEFD0020FEF7BBFDC4
:1031D000DC20FEF7B8FD0020FEF7B5FDB820FEF7B5
:1031E000A9FD0020FEF7AFFD0020FEF7ACFD00209A
:1031F000FEF7A9FD0020FEF7A6FD0020FEF7A3FDC7
:103200000020FEF7A0FD0020FEF79DFD0020FEF748
:103210009AFDBA20FEF78EFD2420FEF794FD0020D3
:10322000FEF791FD0020FEF78EFD0020FEF78BFDDE
:10323000C120FEF77FFD2020FEF785FD0020FEF770
:1032400082FD5420FEF77FFD0020FEF77CFDFF206D
:10325000FEF779FD0020FEF776FDC220FEF76AFD3D
:103260000A20FEF770FD0020FEF76DFD0420FEF73A
:103270006AFD0020FEF767FDC320FEF75BFD3C20E2
:10328000FEF761FD0020FEF75EFD3A20FEF75BFDD4
:103290000020FEF758FD3920FEF755FD0020FEF70F
:1032A00052FD3720FEF74FFD0020FEF74CFD3C207D
:1032B000FEF749FD0020FEF746FD3620FEF743FDF0
:1032C0000020FEF740FD3220FEF73DFD0020FEF716
:1032D0003AFD2F20FEF737FD0020FEF734FD2C20AD
:1032E000FEF731FD0020FEF72EFD2920FEF72BFD15
:1032F0000020FEF728FD2620FEF725FD0020FEF722
:1033000022FD2420FEF71FFD0020FEF71CFD2420D7
:10331000FEF719FD0020FEF716FD2320FEF713FD32
:103320000020FEF710FD3C20FEF70DFD0020FEF70B
:103330000AFD3620FEF707FD0020FEF704FD3220CF
:10334000FEF701FD0020FEF7FEFC2F20FEF7FBFC40
:103350000020FEF7F8FC2C20FEF7F5FC0020FEF71D
:10336000F2FC2920FEF7EFFC0020FEF7ECFC262003
:10337000FEF7E9FC0020FEF7E6FC2420FEF7E3FC64
:103380000020FEF7E0FC2420FEF7DDFC0020FEF725
:10339000DAFC2320FEF7D7FC0020FEF7D4FCC42083
:1033A000FEF7C8FC6220FEF7CEFC0020FEF7CBFC47
:1033B0000520FEF7C8FC0020FEF7C5FC8420FEF7C0
:1033C000C2FC0020FEF7BFFCF020FEF7BCFC002092
:1033D000FEF7B9FC1820FEF7B6FC0020FEF7B3FCA0
:1033E000A420FEF7B0FC0020FEF7ADFC1820FEF78D
:1033F000AAFC0020FEF7A7FC5020FEF7A4FC00204A
:10340000FEF7A1FC0C20FEF79EFC0020FEF79BFCC3
:103410001720FEF798FC0020FEF795FC9520FEF79C
:1034200092FC0020FEF78FFCF320FEF78CFC0020BE
:10343000FEF789FCE620FEF786FC0020FEF783FC01
:10344000C520FEF777FC3220FEF77DFC0020FEF75A
:103450007AFC4420FEF777FC0020FEF774FC652020
:10346000FEF771FC0020FEF76EFC7620FEF76BFC89
:103470000020FEF768FC8820FEF765FC0020FEF7C0
:1034800062FCC620FEF756FC2020FEF75CFC002004
:10349000FEF759FC1720FEF756FC0020FEF753FC00
:1034A0000120FEF750FC0020FEF74DFCC720FEF780
:1034B00041FC0020FEF747FC0020FEF744FC002002
:1034C000FEF741FC0020FEF73EFCC820FEF732FC70
:1034D0000020FEF738FC0020FEF735FC0020FEF748
:1034E00032FC0020FEF72FFCC920FEF723FC002051
:1034F000FEF729FC0020FEF726FC0020FEF723FC47
:103500000020FEF720FC0020FEF71DFC0020FEF747
:103510001AFC0020FEF717FC0020FEF714FC002028
:10352000FEF711FC0020FEF70EFC0020FEF70BFC5E
:103530000020FEF708FC0020FEF705FC0020FEF747
:1035400002FC0020FEF7FFFB0020FEF7FCFBE02062
:10355000FEF7F0FB1620FEF7F6FB0020FEF7F3FB6C
:103560001C20FEF7F0FB0020FEF7EDFB2120FEF70C
:10357000EAFB0020FEF7E7FB3620FEF7E4FB002025
:10358000FEF7E1FB4620FEF7DEFB0020FEF7DBFB4B
:103590005220FEF7D8FB0020FEF7D5FB6420FEF793
:1035A000D2FB0020FEF7CFFB7A20FEF7CCFB0020F9
:1035B000FEF7C9FB8B20FEF7C6FB0020FEF7C3FB1E
:1035C0009920FEF7C0FB0020FEF7BDFBA820FEF708
:1035D000BAFB0020FEF7B7FBB920FEF7B4FB0020D2
:1035E000FEF7B1FBC420FEF7AEFB0020FEF7ABFBFD
:1035F000CA20FEF7A8FB0020FEF7A5FBD220FEF7AD
:10360000A2FB0020FEF79FFBD920FEF79CFB0020C9
:10361000FEF799FBE020FEF796FB0020FEF793FBF8
:10362000F320FEF790FB0020FEF78DFBE120FEF774
:1036300081FB1620FEF787FB0020FEF784FB1C2091
:10364000FEF781FB0020FEF77EFB2220FEF77BFBCE
:103650000020FEF778FB3620FEF775FB0020FEF712
:1036600072FB4520FEF76FFB0020FEF76CFB52203B
:10367000FEF769FB0020FEF766FB6420FEF763FBA4
:103680000020FEF760FB7A20FEF75DFB0020FEF7CE
:103690005AFB8B20FEF757FB0020FEF754FB9920C6
:1036A000FEF751FB0020FEF74EFBA820FEF74BFB78
:1036B0000020FEF748FBB920FEF745FB0020FEF78F
:1036C00042FBC420FEF73FFB0020FEF73CFBCA2074
:1036D000FEF739FB0020FEF736FBD220FEF733FB66
:1036E0000020FEF730FBD820FEF72DFB0020FEF770
:1036F0002AFBE020FEF727FB0020FEF724FBF32047
:10370000FEF721FB0020FEF71EFBE220FEF712FB76
:103710000520FEF718FB0020FEF715FB0B20FEF737
:1037200012FB0020FEF70FFB1B20FEF70CFB002016
:10373000FEF709FB3420FEF706FB0020FEF703FB33
:103740004420FEF700FB0020FEF7FDFA4F20FEF7B5
:10375000FAFA0020FEF7F7FA6120FEF7F4FA0020EB
:10376000FEF7F1FA7920FEF7EEFA0020FEF7EBFA09
:103770008820FEF7E8FA0020FEF7E5FA9720FEF72A
:10378000E2FA0020FEF7DFFAA620FEF7DCFA0020BE
:10379000FEF7D9FAB720FEF7D6FA0020FEF7D3FAE3
:1037A000C220FEF7D0FA0020FEF7CDFAC720FEF7C0
:1037B000CAFA0020FEF7C7FAD120FEF7C4FA0020AB
:1037C000FEF7C1FAD620FEF7BEFA0020FEF7BBFADC
:1037D000DD20FEF7B8FA0020FEF7B5FAF320FEF779
:1037E000B2FA0020FEF7AFFAE320FEF7A3FA0520B5
:1037F000FEF7A9FA0020FEF7A6FA0A20FEF7A3FAC0
:103800000020FEF7A0FA1C20FEF79DFA0020FEF72C
:103810009AFA3320FEF797FA0020FEF794FA442034
:10382000FEF791FA0020FEF78EFA5020FEF78BFA91
:103830000020FEF788FA6220FEF785FA0020FEF7E6
:1038400082FA7820FEF77FFA0020FEF77CFA8820C3
:10385000FEF779FA0020FEF776FA9720FEF773FA62
:103860000020FEF770FAA620FEF76DFA0020FEF7A2
:103870006AFAB720FEF767FA0020FEF764FAC22062
:10388000FEF761FA0020FEF75EFAC720FEF75BFA4A
:103890000020FEF758FAD120FEF755FA0020FEF777
:1038A00052FAD520FEF74FFA0020FEF74CFADD2041
:1038B000FEF749FA0020FEF746FAF320FEF743FA36
:1038C0000020FEF740FAE420FEF734FA0120FEF76C
:1038D0003AFA0020FEF737FA0120FEF734FA00200A
:1038E000FEF731FA0220FEF72EFA0020FEF72BFA3F
:1038F0002A20FEF728FA0020FEF725FA3C20FEF7E2
:1039000022FA0020FEF71FFA4B20FEF71CFA0020D7
:10391000FEF719FA5D20FEF716FA0020FEF713FAFB
:103920007420FEF710FA0020FEF70DFA8420FEF74F
:103930000AFA0020FEF707FA9320FEF704FA0020A7
:10394000FEF701FAA220FEF7FEF90020FEF7FBF9D0
:10395000B320FEF7F8F90020FEF7F5F9BE20FEF7D8
:10396000F2F90020FEF7EFF9C420FEF7ECF9002091
:10397000FEF7E9F9CD20FEF7E6F90020FEF7E3F9BE
:10398000D320FEF7E0F90020FEF7DDF9DD20FEF799
:10399000DAF90020FEF7D7F9F320FEF7D4F900207A
:1039A000FEF7D1F9E520FEF7C5F90020FEF7CBF9C7
:1039B0000020FEF7C8F90020FEF7C5F90020FEF749
:1039C000C2F90220FEF7BFF90020FEF7BCF929205A
:1039D000FEF7B9F90020FEF7B6F93C20FEF7B3F97F
:1039E0000020FEF7B0F94B20FEF7ADF90020FEF7FE
:1039F000AAF95D20FEF7A7F90020FEF7A4F97420CC
:103A0000FEF7A1F90020FEF79EF98420FEF79BF94E
:103A10000020FEF798F99320FEF795F90020FEF7B5
:103A200092F9A220FEF78FF90020FEF78CF9B3205F
:103A3000FEF789F90020FEF786F9BE20FEF783F92C
:103A40000020FEF780F9C420FEF77DF90020FEF784
:103A50007AF9CD20FEF777F90020FEF774F9D3202C
:103A6000FEF771F90020FEF76EF9DC20FEF76BF926
:103A70000020FEF768F9F320FEF765F90020FEF755
:103A800062F9E620FEF756F91120FEF75CF90020F6
:103A9000FEF759F93420FEF756F90020FEF753F9E6
:103AA0005620FEF750F90020FEF74DF97620FEF77C
:103AB0004AF90020FEF747F97720FEF744F9002085
:103AC000FEF741F96620FEF73EF90020FEF73BF9CC
:103AD0008820FEF738F90020FEF735F99920FEF727
:103AE00032F90020FEF72FF9BB20FEF72CF9002059
:103AF000FEF729F99920FEF726F90020FEF723F9B1
:103B00006620FEF720F90020FEF71DF95520FEF78C
:103B10001AF90020FEF717F95520FEF714F90020D6
:103B2000FEF711F94520FEF70EF90020FEF70BF91C
:103B30004320FEF708F90020FEF705F94420FEF7C0
:103B400002F90020FEF7FFF8E720FEF7F3F8322035
:103B5000FEF7F9F80020FEF7F6F85520FEF7F3F827
:103B60000020FEF7F0F87620FEF7EDF80020FEF7D3
:103B7000EAF86620FEF7E7F80020FEF7E4F8672091
:103B8000FEF7E1F80020FEF7DEF86720FEF7DBF82D
:103B90000020FEF7D8F88720FEF7D5F80020FEF7C2
:103BA000D2F89920FEF7CFF80020FEF7CCF8BB2022
:103BB000FEF7C9F80020FEF7C6F89920FEF7C3F813
:103BC0000020FEF7C0F87720FEF7BDF80020FEF7D2
:103BD000BAF84420FEF7B7F80020FEF7B4F85620F4
:103BE000FEF7B1F80020FEF7AEF82320FEF7ABF8A1
:103BF0000020FEF7A8F83320FEF7A5F80020FEF716
:103C0000A2F84520FEF79FF80020FEF79CF8E82078
:103C1000FEF790F80020FEF796F80020FEF793F8E4
:103C20009920FEF790F80020FEF78DF88720FEF728
:103C30008AF80020FEF787F88820FEF784F8002035
:103C4000FEF781F87720FEF77EF80020FEF77BF87C
:103C50006620FEF778F80020FEF775F88820FEF75A
:103C600072F80020FEF76FF8AA20FEF76CF800202B
:103C7000FEF769F8BB20FEF766F80020FEF763F850
:103C80009920FEF760F80020FEF75DF86620FEF749
:103C90005AF80020FEF757F85520FEF754F8002098
:103CA000FEF751F85520FEF74EF80020FEF74BF8CE
:103CB0004420FEF748F80020FEF745F84420FEF7C0
:103CC00042F80020FEF73FF85520FEF73CF80020B0
:103CD000FEF739F8E920FEF72DF8AA20FEF733F8B1
:103CE0000020FEF730F80020FEF72DF80020FEF748
:103CF0002AF80020FEF71EF8AA20FEF724F8CF20AD
:103D0000FEF718F80020FEF71EF80020FEF71BF85B
:103D10000020FEF718F80020FEF715F80020FEF747
:103D200012F80020FEF70FF80020FEF70CF8002034
:103D3000FEF709F80020FEF706F80020FEF703F86A
:103D40000020FEF700F80020FDF7FDFF0020FDF742
:103D5000FAFF0020FDF7F7FF0020FDF7F4FF002039
:103D6000FDF7F1FF0020FDF7EEFFF020FDF7E2FF89
:103D70000020FDF7E8FF5020FDF7E5FF0020FDF7EC
:103D8000E2FF0020FDF7DFFF0020FDF7DCFFF3205E
:103D9000FDF7D0FF0020FDF7D6FFF920FDF7CAFFA1
:103DA0000620FDF7D0FF1020FDF7CDFF2920FDF7FD
:103DB000CAFF0020FDF7C7FF3A20FDF7BBFF5520E3
:103DC000FDF7C1FF1120FDF7B5FF6420FCF72DFCC6
:103DD0002920FDF7AFFF3520FDF7ACFF0020FDF7F0
:103DE000B2FF5120FDF7A6FFFF20FDF7ACFF5320E7
:103DF000FDF7A0FF2C20FDF7A6FF5520FDF79AFF49
:103E00008220FDF7A0FF2C20FDF794FF02F028B8D8
:103E1000FE48808845F2105188427DD155214FF4EB
:103E20007040FDF7A2FFAA214FF20100FDF79DFFB0
:103E300052214FF20200FDF798FF08214FF20300D4
:103E4000FDF793FF01214FF20400FDF78EFF0D21D6
:103E50004FF43040FDF789FF0D214BF20100FDF7D3
:103E600084FF0D214BF20200FDF77FFF34214FF458
:103E70003640FDF77AFF34214BF20160FDF775FF04
:103E800034214BF20260FDF770FF0D214FF43140F9
:103E9000FDF76BFF0D214BF20110FDF766FF0D21C1
:103EA0004BF20210FDF761FF34214FF43740FDF76C
:103EB0005CFF34214BF20170FDF757FF34214BF2C8
:103EC0000270FDF752FF00214FF43240FDF74DFF25
:103ED00000214BF20120FDF748FF00214BF20220A8
:103EE000FDF743FF24214FF43840FDF73EFF242126
:103EF0004BF60100FDF739FF24214BF60200FDF7D8
:103F000034FF01214FF43F40FDF72FFF0F214FF405
:103F10003340FDF72AFF00E0FDE30F214BF20130B3
:103F2000FDF723FF0F214BF20230FDF71EFF342176
:103F30004FF43940FDF719FF34214BF60110FDF71E
:103F400014FF34214BF60210FDF70FFF08214FF448
:103F50003540FDF70AFF08214BF20150FDF705FF40
:103F600008214BF20250FDF700FF03214FF44240BD
:103F7000FDF7FBFE24214FF43A40FDF7F6FE242125
:103F80004BF60120FDF7F1FE24214BF60220FDF750
:103F9000ECFE00214FF43C40FDF7E7FE78214BF6A4
:103FA0000140FDF7E2FE00214BF60240FDF7DDFE89
:103FB00000214FF43D40FDF7D8FE78214BF601502B
:103FC000FDF7D3FE00214BF60250FDF7CEFE002197
:103FD0004FF43E40FDF7C9FE64214BF60160FDF74A
:103FE000C4FE00214FF45140FDF7BFFE33214DF2D6
:103FF0000110FDF7BAFE00214DF20210FDF7B5FEEB
:1040000034214DF20310FDF7B0FE00214DF20410F3
:10401000FDF7ABFE3A214DF20510FDF7A6FE00219B
:104020004DF20610FDF7A1FE4A214DF20710FDF7F3
:104030009CFE00214DF20810FDF797FE5C214DF229
:104040000910FDF792FE00214DF20A10FDF78DFEDA
:1040500081214DF20B10FDF788FE00214DF20C106E
:10406000FDF783FEA6214DF20D10FDF77EFE002127
:104070004DF20E10FDF779FEE5214DF20F10FDF720
:1040800074FE01214DF21010FDF76FFE13214DF269
:104090001110FDF76AFE01214DF21210FDF765FEC9
:1040A00054214DF21310FDF760FE01214DF2141062
:1040B000FDF75BFE82214DF21510FDF756FE012142
:1040C0004DF21610FDF751FECA214DF21710FDF703
:1040D0004CFE02214DF21810FDF747FE00214DF273
:1040E0001910FDF742FE02214DF21A10FDF73DFEB8
:1040F00001214DF21B10FDF738FE02214DF21C107C
:10410000FDF733FE34214DF21D10FDF72EFE022186
:104110004DF21E10FDF729FE67214DF21F10FDF72D
:1041200024FE02214DF22010FDF71FFE84214DF2E6
:104130002110FDF71AFE02214DF22210FDF715FEA7
:10414000A4214DF22310FDF710FE02214DF22410A0
:10415000FDF70BFEB7214DF22510FDF706FE0221FB
:104160004DF22610FDF701FECF214DF22710FDF78D
:10417000FCFD02214DF22810FDF7F7FDDE214DF286
:104180002910FDF7F2FD02214DF22A10FDF7EDFD99
:10419000F2214DF22B10FDF7E8FD02214DF22C101B
:1041A000FDF7E3FDFE214DF22D10FDF7DEFD0321AD
:1041B0004DF22E10FDF7D9FD10214DF22F10FDF715
:1041C000D4FD03214DF23010FDF7CFFD33214DF228
:1041D0003110FDF7CAFD03214DF23210FDF7C5FD88
:1041E0006D214DF23310FDF7C0FD00214FF4524018
:1041F000FDF7BBFD33214DF20120FDF7B6FD002197
:104200004DF20220FDF7B1FD342101E0180100203C
:104210004DF20320FDF7A9FD00214DF20420FDF72A
:10422000A4FD3A214DF20520FDF79FFD00214DF23E
:104230000620FDF79AFD4A214DF20720FDF795FD76
:1042400000214DF20820FDF790FD5C214DF2092080
:10425000FDF78BFD00214DF20A20FDF786FD81213F
:104260004DF20B20FDF781FD00214DF20C20FDF7F2
:104270007CFDA6214DF20D20FDF777FD00214DF2CA
:104280000E20FDF772FDE5214DF20F20FDF76DFDCB
:1042900001214DF21020FDF768FD13214DF2112090
:1042A000FDF763FD01214DF21220FDF75EFD542163
:1042B0004DF21320FDF759FD01214DF21420FDF7B9
:1042C00054FD82214DF21520FDF74FFD01214DF2E5
:1042D0001620FDF74AFDCA214DF21720FDF745FDD6
:1042E00002214DF21820FDF740FD00214DF219206A
:1042F000FDF73BFD02214DF21A20FDF736FD0121AD
:104300004DF21B20FDF731FD02214DF21C20FDF77F
:104310002CFD34214DF21D20FDF727FD02214DF229
:104320001E20FDF722FD67214DF21F20FDF71DFD28
:1043300002214DF22020FDF718FD84214DF22120AD
:10434000FDF713FD02214DF22220FDF70EFDA42101
:104350004DF22320FDF709FD02214DF22420FDF747
:1043600004FDB7214DF22520FDF7FFFC02214DF29F
:104370002620FDF7FAFCCF214DF22720FDF7F5FCB2
:1043800002214DF22820FDF7F0FCDE214DF229201C
:10439000FDF7EBFC02214DF22A20FDF7E6FCF221AD
:1043A0004DF22B20FDF7E1FC02214DF22C20FDF710
:1043B000DCFCFE214DF22D20FDF7D7FC03214DF250
:1043C0002E20FDF7D2FC10214DF22F20FDF7CDFC61
:1043D00003214DF23020FDF7C8FC33214DF231208E
:1043E000FDF7C3FC03214DF23220FDF7BEFC6D2129
:1043F0004DF23320FDF7B9FC00214FF45340FDF797
:10440000B4FC33214DF20130FDF7AFFC00214DF239
:104410000230FDF7AAFC34214DF20330FDF7A5FC74
:1044200000214DF20430FDF7A0FC3A214DF2053099
:10443000FDF79BFC00214DF20630FDF796FC4A216A
:104440004DF20730FDF791FC00214DF20830FDF7E9
:104450008CFC5C214DF20930FDF787FC00214DF208
:104460000A30FDF782FC81214DF20B30FDF77DFC17
:1044700000214DF20C30FDF778FCA6214DF20D30F5
:10448000FDF773FC00214DF20E30FDF76EFCE521C7
:104490004DF20F30FDF769FC01214DF21030FDF7B0
:1044A00064FC13214DF21130FDF75FFC01214DF248
:1044B0001230FDF75AFC54214DF21330FDF755FC34
:1044C00001214DF21430FDF750FC82214DF21530E0
:1044D000FDF74BFC01214DF21630FDF746FCCA21D9
:1044E0004DF21730FDF741FC02214DF21830FDF777
:1044F0003CFC00214DF21930FDF737FC02214DF252
:104500001A30FDF732FC01214DF21B30FDF72DFC76
:1045100002214DF21C30FDF728FC34214DF21D30F4
:10452000FDF723FC02214DF21E30FDF71EFC672132
:104530004DF21F30FDF719FC02214DF22030FDF73E
:1045400014FC84214DF22130FDF70FFC02214DF2C5
:104550002230FDF70AFCA4214DF22330FDF705FCC3
:1045600002214DF22430FDF700FCB7214DF2253039
:10457000FDF7FBFB02214DF22630FDF7F6FBCF21C4
:104580004DF22730FDF7F1FB02214DF22830FDF707
:10459000ECFBDE214DF22930FDF7E7FB02214DF265
:1045A0002A30FDF7E2FBF2214DF22B30FDF7DDFB67
:1045B00002214DF22C30FDF7D8FBFE214DF22D30BB
:1045C000FDF7D3FB03214DF22E30FDF7CEFB10217A
:1045D0004DF22F30FDF7C9FB03214DF23030FDF7CE
:1045E000C4FB33214DF23130FDF7BFFB03214DF207
:1045F0003230FDF7BAFB6D214DF23330FDF7B5FBDC
:1046000000214FF45440FDF7B0FB33214DF201403F
:10461000FDF7ABFB00214DF20240FDF7A6FB342174
:104620004DF20340FDF7A1FB00214DF20440FDF7E0
:104630009CFB3A214DF20540FDF797FB00214DF21E
:104640000640FDF792FB4A214DF20740FDF78DFB36
:1046500000214DF20840FDF788FB5C214DF2094036
:10466000FDF783FB00214DF20A40FDF77EFB81211F
:104670004DF20B40FDF779FB00214DF20C40FDF7A8
:1046800074FBA6214DF20D40FDF76FFB00214DF2AA
:104690000E40FDF76AFBE5214DF20F40FDF765FB8B
:1046A00001214DF21040FDF760FB13214DF2114046
:1046B000FDF75BFB01214DF21240FDF756FB542143
:1046C0004DF21340FDF751FB01214DF21440FDF76F
:1046D0004CFB82214DF21540FDF747FB01214DF2C5
:1046E0001640FDF742FBCA214DF21740FDF73DFB96
:1046F00002214DF21840FDF738FB00214DF2194020
:10470000FDF733FB02214DF21A40FDF72EFB01218C
:104710004DF21B4000E006E3FDF727FB02214DF2BE
:104720001C40FDF722FB34214DF21D40FDF71DFB1F
:1047300002214DF21E40FDF718FB67214DF21F408C
:10474000FDF713FB02214DF22040FDF70EFB842103
:104750004DF22140FDF709FB02214DF22240FDF709
:1047600004FBA4214DF22340FDF7FFFA02214DF294
:104770002440FDF7FAFAB7214DF22540FDF7F5FA8E
:1047800002214DF22640FDF7F0FACF214DF22740ED
:10479000FDF7EBFA02214DF22840FDF7E6FADE21A3
:1047A0004DF22940FDF7E1FA02214DF22A40FDF7D2
:1047B000DCFAF2214DF22B40FDF7D7FA02214DF23F
:1047C0002C40FDF7D2FAFE214DF22D40FDF7CDFA37
:1047D00003214DF22E40FDF7C8FA10214DF22F4073
:1047E000FDF7C3FA03214DF23040FDF7BEFA332145
:1047F0004DF23140FDF7B9FA03214DF23240FDF799
:10480000B4FA6D214DF23340FDF7AFFA00214FF4B9
:104810005540FDF7AAFA33214DF20150FDF7A5FAF4
:1048200000214DF20250FDF7A0FA34214DF2035061
:10483000FDF79BFA00214DF20450FDF796FA3A215C
:104840004DF20550FDF791FA00214DF20650FDF7AB
:104850008CFA4A214DF20750FDF787FA00214DF2FC
:104860000850FDF782FA5C214DF20950FDF77DFA00
:1048700000214DF20A50FDF778FA81214DF20B50DC
:10488000FDF773FA00214DF20C50FDF76EFAA621E8
:104890004DF20D50FDF769FA00214DF20E50FDF773
:1048A00064FAE5214DF20F50FDF75FFA01214DF258
:1048B0001050FDF75AFA13214DF21150FDF755FA39
:1048C00001214DF21250FDF750FA54214DF21350D0
:1048D000FDF74BFA01214DF21450FDF746FA822103
:1048E0004DF21550FDF741FA01214DF21650FDF73A
:1048F0003CFACA214DF21750FDF737FA02214DF26A
:104900001850FDF732FA00214DF21950FDF72DFA3B
:1049100002214DF21A50FDF728FA01214DF21B50E9
:10492000FDF723FA02214DF21C50FDF71EFA342147
:104930004DF21D50FDF719FA02214DF21E50FDF700
:1049400014FA67214DF21F50FDF70FFA02214DF2C4
:104950002050FDF70AFA84214DF22150FDF705FAA7
:1049600002214DF22250FDF700FAA4214DF223500E
:10497000FDF7FBF902214DF22450FDF7F6F9B721BE
:104980004DF22550FDF7F1F902214DF22650FDF7C9
:10499000ECF9CF214DF22750FDF7E7F902214DF256
:1049A0002850FDF7E2F9DE214DF22950FDF7DDF93F
:1049B00002214DF22A50FDF7D8F9F2214DF22B5089
:1049C000FDF7D3F902214DF22C50FDF7CEF9FE216F
:1049D0004DF22D50FDF7C9F903214DF22E50FDF790
:1049E000C4F910214DF22F50FDF7BFF903214DF20C
:1049F0003050FDF7BAF933214DF23150FDF7B5F9DA
:104A000003214DF23250FDF7B0F96D214DF23350D4
:104A1000FDF7ABF900214FF45640FDF7A6F933211D
:104A20004DF20160FDF7A1F900214DF20260FDF7A2
:104A30009CF934214DF20360FDF797F900214DF206
:104A40000460FDF792F93A214DF20560FDF78DF90A
:104A500000214DF20660FDF788F94A214DF207600A
:104A6000FDF783F900214DF20860FDF77EF95C2126
:104A70004DF20960FDF779F900214DF20A60FDF76A
:104A800074F981214DF20B60FDF76FF900214DF2B1
:104A90000C60FDF76AF9A6214DF20D60FDF765F98E
:104AA00000214DF20E60FDF760F9E5214DF20F6037
:104AB000FDF75BF901214DF21060FDF756F9132166
:104AC0004DF21160FDF751F901214DF21260FDF731
:104AD0004CF954214DF21360FDF747F901214DF2D5
:104AE0001460FDF742F982214DF21560FDF73DF9A2
:104AF00001214DF21660FDF738F9CA214DF2176019
:104B0000FDF733F902214DF21860FDF72EF900216F
:104B10004DF21960FDF729F902214DF21A60FDF7F7
:104B200024F901214DF21B60FDF71FF902214DF21E
:104B30001C60FDF71AF934214DF21D60FDF715F9DF
:104B400002214DF21E60FDF710F967214DF21F6042
:104B5000FDF70BF902214DF22060FDF706F98421E3
:104B60004DF22160FDF701F902214DF22260FDF7BF
:104B7000FCF8A4214DF22360FDF7F7F802214DF275
:104B80002460FDF7F2F8B7214DF22560FDF7EDF84E
:104B900002214DF22660FDF7E8F8CF214DF22760A3
:104BA000FDF7E3F802214DF22860FDF7DEF8DE2183
:104BB0004DF22960FDF7D9F802214DF22A60FDF788
:104BC000D4F8F2214DF22B60FDF7CFF802214DF21F
:104BD0002C60FDF7CAF8FE214DF22D60FDF7C5F8F7
:104BE00003214DF22E60FDF7C0F810214DF22F6029
:104BF000FDF7BBF803214DF23060FDF7B6F8332125
:104C00004DF23160FDF7B1F803214DF23260FDF74E
:104C1000ACF86D214DF23360FDF7A7F855214FF444
:104C20007040FDF7A2F8AA214FF20100FDF79DF8B0
:104C300052214FF20200FDF798F808214FF20300CD
:104C4000FDF793F800214FF20400FDF78EF8CC2118
:104C50004FF43140FDF789F800214BF20110FDF7C8
:104C600084F805214FF43640FDF77FF870214FF4AA
:104C70003740FDF77AF870214BF20170FDF775F8B7
:104C800001214FF43840FDF770F803214BF6010085
:104C9000FDF76BF803214BF60200FDF766F80321E0
:104CA0004BF60300FDF761F802214FF43C40FDF79D
:104CB0005CF800214BF60140FDF757F800214BF658
:104CC0000240FDF752F8D0214FF44940FDF74DF86E
:104CD00002214CF60110FDF748F850214CF6021065
:104CE000FDF743F850214CF60310FDF73EF8502134
:104CF0004CF60410FDF739F800214FF45450FDF73D
:104D000034F855214FF46850FDF72FF84FF48850D0
:104D1000FDF710F87820FBF764FC4FF42450FDF702
:104D200009F801F09DB8FE48808849F22531884293
:104D30007ED147F6F001E520FDF717F84FF48071BA
:104D40000120FDF712F84FF4E0610220FDF70DF8A5
:104D500041F230010320FDF708F800210420FDF79F
:104D600004F840F202210820FCF7FFFF002109208F
:104D7000FCF7FBFF00210A20FCF7F7FF00210C20C5
:104D8000FCF7F3FF00210D20FCF7EFFF00210F20BF
:104D9000FCF7EBFF00211020FCF7E7FF07211120B3
:104DA000FCF7E3FF00211220FCF7DFFF00211320B6
:104DB000FCF7DBFF00210720FCF7D7FF41F29061F1
:104DC0001020FCF7D2FF40F227211120FCF7CDFF85
:104DD0009D211220FCF7C9FF4FF4C8511320FCF7A6
:104DE000C4FF25212920FCF7C0FF0D212B20FCF753
:104DF000BCFF07213020FCF7B8FF40F2033131201F
:104E0000FCF7B3FF03213220FCF7AFFF40F206218D
:104E10003520FCF7AAFF08213620FCF7A6FF40F258
:104E200006413720FCF7A1FF4FF44171382000E024
:104E300057E0FCF79AFF07213920FCF796FF40F274
:104E400002613C20FCF791FF08213D20FCF78DFF1B
:104E500000215020FCF789FFEF215120FCF785FF4E
:104E600000215220FCF781FF40F23F115320FCF754
:104E70007CFF4FF427416020FCF777FF0121612080
:104E8000FCF773FF00216A20FCF76FFF00218020F0
:104E9000FCF76BFF00218120FCF767FF00218220D7
:104EA000FCF763FF00218320FCF75FFF00218420D3
:104EB000FCF75BFF00218520FCF757FF10219020B5
:104EC000FCF753FF4FF4C0619220FCF74EFF40F215
:104ED00033110720FCF749FF22210020FCF745FF92
:104EE0001FE78F48808849F2283188427ED141F2FD
:104EF0008F01EC20FCF739FF41F23421EF20FCF761
:104F000034FF4FF480710120FCF72FFF4FF4E06174
:104F10000220FCF72AFF41F230010320FCF725FFB5
:104F200000210420FCF721FF40F202210820FCF7B9
:104F30001CFF00210920FCF718FF00210A20FCF7C4
:104F400014FF01210C20FCF710FF00210D20FCF7BD
:104F50000CFF00210F20FCF708FF00211020FCF7B8
:104F600004FF07211120FCF700FF00211220FCF7AD
:104F7000FCFE00211320FCF7F8FE01210720FCF7BE
:104F8000F4FE3220FBF751FB41F290411020FCF778
:104F9000ECFE40F227211120FCF7E7FE3220FBF760
:104FA00044FB8A211220FCF7E0FE3220FBF73DFB98
:104FB0004FF4D0511320FCF7D8FE06212920FCF72E
:104FC000D4FE0D212B20FCF7D0FE3220FBF72DFB69
:104FD00000212020FCF7C9FE00212120FCF7C5FE9E
:104FE0003220FBF722FB0021302000E074E0FCF7C8
:104FF000BCFE40F204613120FCF7B7FE40F20531FF
:105000003220FCF7B2FE00213520FCF7AEFE40F660
:1050100009413620FCF7A9FE4FF401713720FCF757
:10502000A4FE40F201313820FCF79FFE40F20771E8
:105030003920FCF79AFE00213C20FCF796FE40F652
:105040000A213D20FCF791FE3220FBF7EEFA002109
:105050005020FCF78AFEEF215120FCF786FE00214C
:105060005220FCF782FE40F23F115320FCF77DFEF8
:105070004FF427416020FCF778FE01216120FCF706
:1050800074FE00216A20FCF770FE00218020FCF7EE
:105090006CFE00218120FCF768FE00218220FCF7D5
:1050A00064FE00218320FCF760FE00218420FCF7D1
:1050B0005CFE00218520FCF758FE10219020FCF7B3
:1050C00054FE4FF4C0619220FCF74FFE40F23311C2
:1050D0000720FCF74AFE24E61148808849F2203177
:1050E00088427DD100210846FCF73FFE4FF48071D5
:1050F0000120FCF73AFE4FF4E0610220FCF735FE98
:1051000041F230010320FCF730FE00210420FCF7BF
:105110002CFE40F202210820FCF727FE002101E0CE
:10512000180100200920FCF720FE00210A20FCF7CE
:105130001CFE01210C20FCF718FE00210D20FCF7BD
:1051400014FE00210F20FCF710FE3220FBF76DFA51
:1051500040F201110720FCF708FE3220FBF765FA48
:105160004FF486511020FCF700FE07211120FCF7B8
:10517000FCFD4FF488711220FCF7F7FD4FF430610D
:105180001320FCF7F2FD00212920FCF7EEFD44F28C
:1051900010012B20FCF7E9FD00215020FCF7E5FD74
:1051A000EF215120FCF7E1FD00215220FCF7DDFD4D
:1051B00040F23F115320FCF7D8FD4FF41C51602002
:1051C000FCF7D3FD01216120FCF7CFFD00216A200F
:1051D000FCF7CBFD00218020FCF7C7FD002100E09B
:1051E00031E08120FCF7C1FD00218220FCF7BDFDEC
:1051F00000218320FCF7B9FD00218420FCF7B5FDD8
:1052000000218520FCF7B1FD10219020FCF7ADFDB9
:1052100000219220FCF7A9FD01219320FCF7A5FDB8
:105220004FF488719520FCF7A0FD00219720FCF732
:105230009CFD00219820FCF798FD40F27311072097
:10524000FCF793FD6DE5FE48808849F231318842D4
:105250007DD141F21401E720FCF787FD4FF4807106
:105260000120FCF782FD4FF400710220FCF77DFD68
:1052700041F238010320FCF778FD40F202210820BA
:10528000FCF773FD00210920FCF76FFD00210A20C7
:10529000FCF76BFD00210C20FCF767FD00210D20C1
:1052A000FCF763FD00210F20FCF75FFD00211020BB
:1052B000FCF75BFD07211120FCF757FD00211220B0
:1052C000FCF753FD00211320FCF74FFDC820FBF72E
:1052D000ACF941F290611020FCF747FD40F2272124
:1052E0001120FCF742FD3220FBF79FF90C21122020
:1052F000FCF73BFD3220FBF798F94FF400611320D7
:10530000FCF733FD11212920FCF72FFD0B212B2069
:10531000FCF72BFD3220FBF788F900212020FCF759
:1053200024FD40F23F112120FCF71FFD0021302019
:10533000FCF71BFD4FF483713120FCF716FD0021B3
:105340003220FCF712FD4FF40171352000E064E0DB
:10535000FCF70BFD41F20A613620FCF706FD40F236
:1053600007713720FCF701FD4FF483713820FCF7FB
:10537000FCFC40F207713920FCF7F7FC40F20241D7
:105380003C20FCF7F2FC40F60F413D20FCF7EDFC21
:1053900000215020FCF7E9FCEF215120FCF7E5FC4F
:1053A00000215220FCF7E1FC40F23F115320FCF7B2
:1053B000DCFC4FF41C516020FCF7D7FC012161207C
:1053C000FCF7D3FC00216A20FCF7CFFC00218020F1
:1053D000FCF7CBFC00218120FCF7C7FC00218220D8
:1053E000FCF7C3FC00218320FCF7BFFC00218420D4
:1053F000FCF7BBFC00218520FCF7B7FC10219020B6
:10540000FCF7B3FC4FF4C0619220FCF7AEFC40F215
:1054100033110720FCF7A9FC83E48948808845F212
:10542000084188427ED14FF480710120FCF79DFC39
:105430004FF4E0610220FCF798FC41F230010320B8
:10544000FCF793FC00210420FCF78FFC40F20721BD
:105450000820FCF78AFC00210920FCF786FC0021CB
:105460000A20FCF782FC00210C20FCF77EFC0021C6
:105470000D20FCF77AFC00210F20FCF776FC1420AD
:10548000FBF7D3F841F2B0611020FCF76EFC01216C
:105490001120FCF76AFC01211720FCF766FC4FF491
:1054A0009C711220FCF761FC4FF400611320FCF7A3
:1054B0005CFC09212920FCF758FC09212A20FCF773
:1054C00054FC0021A420FCF750FC00215020FCF7E4
:1054D0004CFCEF215120FCF748FC00215220FCF746
:1054E00044FC40F23F115320FCF73FFC4FF41C51A9
:1054F0006020FCF73AFC01216120FCF736FC00211A
:105500006A20FCF732FC00218020FCF72EFC0021F1
:105510008120FCF72AFC00218220FCF726FC0021D8
:10552000832000E023E0FCF720FC00218420FCF72E
:105530001CFC00218520FCF718FC13219020FCF7AF
:1055400014FC00219220FCF710FC03219320FCF7AF
:105550000CFC4FF488719520FCF707FC40F27311A6
:105560000720FCF702FC3220FBF75FF8B8E4344870
:10557000808841F2055188427ED100210720FCF746
:10558000F4FB3220FBF751F84FF48E711220FCF738
:10559000ECFB0121A420FCF7E8FB0F210820FCF71D
:1055A000E4FB08210A20FCF7E0FB08210D20FCF7B2
:1055B000DCFB40F207713020FCF7D7FB07213120DC
:1055C000FCF7D3FB40F203613220FCF7CEFB4FF433
:1055D000E0613320FCF7C9FB40F202213420FCF7E4
:1055E000C4FB02213520FCF7C0FB41F60F713620C9
:1055F000FCF7BBFB40F207713720FCF7B6FB00213C
:105600003820FCF7B2FB00213920FCF7AEFB40F25A
:1056100007713A20FCF7A9FB00213B20FCF7A5FB12
:1056200007213C20FCF7A1FB00213D20FCF79DFB5E
:105630003220FAF7FAFF01210720FCF796FB01E080
:105640001801002001211720FCF78FFB3220FAF708
:10565000ECFF4FF4BD511020FCF787FB40F21721FF
:105660001120FCF782FB4FF48F711220FCF77DFBB9
:105670004FF47061132000E097E0FCF776FB002107
:105680002A20FCF772FB0A212920FCF76EFB4FF45D
:105690009F711220FCF769FB00215020FCF765FB8D
:1056A000EF215120FCF761FB00215220FCF75DFB4C
:1056B00040F23F115320FCF758FB4FF41C5160207F
:1056C000FCF753FB01216120FCF74FFB00216A200E
:1056D000FCF74BFB00218020FCF747FB00218120D9
:1056E000FCF743FB00218220FCF73FFB00218320D5
:1056F000FCF73BFB00218420FCF737FB00218520D1
:10570000FCF733FB13219020FCF72FFB4FF4407183
:105710009220FCF72AFB05219320FCF726FB0021B1
:105720009520FCF722FB00219720FCF71EFB0021AF
:105730009820FCF71AFB4FF480710120FCF715FB51
:105740004FF4E0610220FCF710FB41F23801032026
:10575000FCF70BFB00210420FCF707FB00210C20C9
:10576000FCF703FB00210F20FCF7FFFA00212020AB
:10577000FCF7FBFA00212120FCF7F7FA2121072092
:10578000FCF7F3FA1420FAF750FF61210720FCF729
:10579000ECFA1420FAF749FF40F273110720FCF7E6
:1057A000E4FA1420FAF741FF5AE3FE4880884BF2EE
:1057B000055188427ED100210846FCF7D6FA002127
:1057C0000846FCF7D2FA00210846FCF7CEFA002181
:1057D0000846FCF7CAFA0121A420FCF7C6FA1420F7
:1057E000FAF723FF4FF41C516020FCF7BEFA40F299
:1057F00002210820FCF7B9FA4FF405713020FCF7BC
:10580000B4FA43F215713120FCF7AFFA40F20461AB
:105810003220FCF7AAFA40F616613320FCF7A5FA0D
:1058200042F211213420FCF7A0FA4FF4A8513520A0
:10583000FCF79BFA48F207513620FCF796FA41F242
:1058400007413720FCF791FA41F203413820FCF779
:105850008CFA20213920FCF788FA1A219020FCF7D5
:1058600084FA00211020FCF780FA07211120FCF7B0
:105870007CFA00211220FCF778FA00211320FCF7B3
:1058800074FA1420FAF7D1FE4FF4E6611020FCF709
:105890006CFA40F237111120FCF767FA1420FAF77E
:1058A000C4FE4FF4DC711220FCF75FFA1420FAF703
:1058B000BCFE00E083E04FF470611320FCF755FA62
:1058C00080212A20FCF751FA48212920FCF74DFAC3
:1058D0001420FAF7AAFE4FF480710120FCF745FA74
:1058E0004FF4E0610220FCF740FA41F23801032056
:1058F000FCF73BFA40F202210820FCF736FA0021BF
:105900000A20FCF732FA00210C20FCF72EFA0021C5
:105910000D20FCF72AFA30210E20FCF726FA002190
:105920005020FCF722FAEF215120FCF71EFA00214B
:105930005220FCF71AFA40F23F115320FCF715FAF7
:105940004FF41C516020FCF710FA01216120FCF794
:105950000CFA00216A20FCF708FA11219020FCF7CC
:1059600004FA4FF4C0619220FCF7FFF940F20241C3
:105970009320FCF7FAF902219420FCF7F6F91420A1
:10598000FAF753FE01210720FCF7EFF91420FAF78C
:105990004CFE61210720FCF7E8F940F27311072063
:1059A000FCF7E3F900212020FCF7DFF9002121209A
:1059B000FCF7DBF922210020FCF7D7F950E2794807
:1059C00080884CF2055188427ED100210846FCF7C0
:1059D000CCF900210846FCF7C8F91420FAF725FE97
:1059E00000210846FCF7C1F900210846FCF7BDF983
:1059F00000210846FCF7B9F900210846FCF7B5F983
:105A00000121A420FCF7B1F91420FAF70EFE4FF49F
:105A10001C516020FCF7A9F940F606010820FCF7AC
:105A2000A4F940F203713020FCF79FF901213120E5
:105A3000FCF79BF904213220FCF797F94FF48171B0
:105A40003320FCF792F94FF440713420FCF78DF9C4
:105A500040F203113520FCF788F91F213620FCF7AE
:105A600084F940F203713720FCF77FF901213820D7
:105A7000FCF77BF904213920FCF777F915219020F8
:105A8000FCF773F94FF482611020FCF76EF940F2D5
:105A900047211120FCF769F94FF4DE711220FCF761
:105AA00064F94FF460611320FCF75FF97820FAF78E
:105AB000BCFD4FF480710120FCF757F94FF40071E1
:105AC0000220FCF752F900E050E041F230010320DF
:105AD000FCF74BF908210A20FCF747F900210C20BC
