:020000040800F2
:10000000B007002009160008D5030008D703000830
:10001000DB030008DF030008E30300080000000022
:10002000000000000000000000000000E7030008DE
:10003000E903000800000000EB030008ED030008DE
:1000400023160008231600082316000823160008AC
:10005000231600082316000823160008231600089C
:10006000231600082316000823160008231600088C
:10007000231600082316000823160008231600087C
:10008000231600082316000823160008231600086C
:10009000231600082316000823160008231600085C
:1000A000231600082316000823160008231600084C
:1000B00023160008C353000823160008231600085F
:1000C000231600082316000823160008231600082C
:1000D000231600087D1500082316000823160008C3
:1000E000231600082316000823160008231600080C
:1000F00023160008231600082316000823160008FC
:1001000023160008231600082316000823160008EB
:1001100023160008231600082316000823160008DB
:1001200023160008231600082316000823160008CB
:1001300000F002F800F045F80AA090E8000C8244B4
:100140008344AAF10107DA4501D100F03AF8AFF291
:10015000090EBAE80F0013F0010F18BFFB1A43F0A5
:10016000010318478C990000AC990000103A24BF95
:1001700078C878C1FAD8520724BF30C830C144BF0C
:1001800004680C607047000000230024002500264E
:10019000103A28BF78C1FBD8520728BF30C148BFEA
:1001A0000B607047642905F0E387782906F01C800E
:1001B000632906F0FE81002070471FB51FBD10B5F2
:1001C00010BD06F083FA1146FFF7F7FF00F01CF8A8
:1001D00006F0A1FA03B4FFF7F2FF03BC01F070F9D7
:1001E00008B50121042005F0D9FC4FF48060ADF87A
:1001F000000000208DF8030003208DF802006946FE
:100200005E4805F00FFA08BD8CB040200290202017
:10021000019002AD01AE01F0E9F84FF4A06005F0E5
:1002200033F9574801F05BF901F00EFA01F0E1FAF9
:1002300054A20321002001F06DFBFFF7D1FF07E07E
:1002400050A20321002001F065FBC82001F00BF94A
:1002500003F0F8FD0028F3D101F0AFFA4CA203211E
:10026000002001F057FB00BF4FF48061434805F0C8
:100270006CFA0128F8D001F0A0FA41F61F4141F2D2
:10028000873005F071F878E010E001F045FD044694
:1002900006AA07A908A801F092FD03AA04A905A8C7
:1002A00001F065FD0A2094FBF0F004B209AA0AA946
:1002B0000BA803F012FE0028E7D100211E2001F058
:1002C0004BFAFF2001F028FA01211E2001F044FA28
:1002D000FF2001F021FA02211E2001F03DFAFF204B
:1002E00001F01AFA03211E2001F036FAFF2001F076
:1002F00013FA04211E2001F02FFAFF2001F00CFA5E
:1003000005211E2001F028FAFF2001F005FA062140
:100310001E2001F021FAFF2001F0FEF907211E2026
:1003200001F01AFAFF2001F0F7F901F0F5FC074699
:1003300039461BA005F0C0FE099807F061FC07468E
:100340000B9807F05DFC80460A9807F059FC81463F
:100350003B464246494616A005F0AEFE0B9807F014
:100360004FFC07460A9807F04BFC804633462A4666
:10037000394604F032FF04F085FF85E700080140AC
:1003800020A107004C6F6164696E672E2E2E00005D
:10039000507265737320546F20537461727400003F
:1003A00074656D70203D202564200D0A000000005A
:1003B0000D0ABAF3C6DA20A3BA726F6C6C3A2564E0
:1003C0002C2070697463683A25642C207961773A2F
:1003D00025640000704700BFFEE700BFFEE700BFD6
:1003E000FEE700BFFEE770477047704770470000A8
:1003F0000CB50020019000906C48006840F48030FB
:100400006A49086000BF6948006800F40030009045
:100410000198401C0190009818B90198B0F5A06FA0
:10042000F1D16248006800F4003010B10120009062
:1004300001E0002000900098012843D15C4800684A
:1004400040F010005A4908600846006820F0030098
:1004500008600846006840F00200086053484068A1
:10046000524948600846406848600846406840F481
:10047000806048600846406820F47C104860084668
:10048000406840F4E81048600846006840F080701A
:10049000086000BF4548006800F000700028F9D0EF
:1004A0004248406820F003004049486008464068E0
:1004B00040F00200486000BF3C48406800F00C007B
:1004C0000828F9D10CBD10B5FFF792FF10BD10B58B
:1004D0003648006840F0010034490860084640682A
:1004E00034490840314948600846006832490840AC
:1004F0002E4908600846006820F4802008600846FD
:10050000406820F4FE0048604FF41F008860FFF749
:10051000DAFF4FF000602949086010BD10B50021D6
:1005200000200022214B5B6803F00C0121B104295B
:1005300006D0082928D107E0214B224C236027E070
:100540001F4B204C236023E0184B5B6803F47010B2
:10055000164B5B6803F48032022303EB904022B910
:10056000194B4343174C23600DE0104B5B6803F4B9
:10057000003323B1144B4343124C236003E0104B70
:100580004343104C236003E00D4B0E4C236000BF2F
:1005900000BF064B5B68C3F303130C4CE15C094BD3
:1005A0001B68CB40074C236010BD000000100240C8
:1005B000002002400000FFF8FFFFF6FE08ED00E01B
:1005C00000127A000000002000093D000400002015
:1005D00010B50446FE48844208D10121C01405F03C
:1005E000F7FA0021E01405F0F3FAC4E0B4F1804F0B
:1005F00008D10121084605F0F8FA0021012005F094
:10060000F4FAB8E0F348844208D10121022005F051
:10061000ECFA0021022005F0E8FAACE0EE48844252
:1006200008D10121042005F0E0FA0021042005F0A2
:10063000DCFAA0E0E948844208D10121082005F055
:10064000D4FA0021082005F0D0FA94E0E44884426E
:1006500008D10121102005F0C8FA0021102005F072
:10066000C4FA88E0DF48844208D10121202005F047
:10067000BCFA0021202005F0B8FA7CE0DA48844278
:1006800008D10121401405F0A3FA0021601405F0FF
:100690009FFA70E0D548844209D10121C80405F0D1
:1006A00097FA00214FF4002005F092FA63E0D04859
:1006B000844209D10121080505F08AFA00214FF48E
:1006C000801005F085FA56E0CA48844209D101211C
:1006D000480505F07DFA00214FF4001005F078FA86
:1006E00049E0C548844208D10121402005F07DFA47
:1006F0000021402005F079FA3DE0C048844208D14D
:100700000121802005F071FA0021802005F06DFAAA
:1007100031E0BB48844208D10121801505F065FA1B
:100720000021A01505F061FA25E0B648844209D100
:100730000121080405F04CFA00214FF4803005F047
:1007400047FA18E0B048844209D10121480405F075
:100750003FFA00214FF4003005F03AFA0BE0AB48C5
:10076000844208D10121880405F032FA00214FF4B7
:10077000802005F02DFA10BD00220288944B98428B
:100780000ED0994B98420BD0B0F1804F08D0914BCE
:10079000984205D0904B984202D0904B984204D199
:1007A0004FF68F731A404B881A438D4B984207D0EF
:1007B0008C4B984204D04FF6FF431A40CB881A4323
:1007C00002808B8883850B880385814B98420BD0F0
:1007D000854B984208D08B4B984205D08A4B984263
:1007E00002D08A4B984201D10B7A0386012383827F
:1007F000704770B5002400220023058C4FF6FE766A
:1008000035400584028C8388048B4FF68F752C400D
:10081000B51E2C400D882C43751E2A400D892A4395
:100820004D882A436A4DA8420BD06F4DA84208D08C
:10083000744DA84205D0744DA84202D0734DA84211
:1008400013D14FF6F7752A404D892A434FF6FB75B1
:100850002A408D882A434FF6FF652B404FF6FF55FF
:100860002B408D892B43CD892B4383800483CD88F6
:100870008586028470BD70B5002400220023058C9B
:100880004FF6EF7635400584028C8388048B48F65A
:10089000FF752C404FF6FF452C400D884FF6FF7634
:1008A00006EA05252C434FF6DF752A400D8906EA36
:1008B00005152A434D8806EA05152A43444DA842EA
:1008C00002D0494DA8421DD14FF67F752A404D896F
:1008D0004FF6FF7606EA05152A434FF6BF752A4004
:1008E0008D8806EA05152A434FF6FF352B404FF257
:1008F000FF752B408D8906EA85052B43CD8906EAD5
:1009000085052B4383800483CD880587028470BDD1
:1009100070B5002400220023058C4FF6FF66354099
:100920000584028C8388848B4FF68F752C404FF69C
:10093000FC752C400D882C434FF6FF552A400D893D
:100940004FF6FF7606EA05252A434D8806EA052577
:100950002A431F4DA84202D0234DA8421DD14FF279
:10096000FF752A404D894FF6FF7606EA05252A4392
:100970004FF6FF352A408D8806EA05252A434EF6B4
:10098000FF752B404DF6FF752B408D8906EA051546
:100990002B43CD8906EA05152B4383808483CD88BC
:1009A0008587028470BD70B5002200230024058C69
:1009B0004EF6FF7635400584038C8488828B48F69A
:1009C000FF752A404FF6FF452A400D8820E00000C1
:1009D000002C01400004004000080040000C0040D2
:1009E000001000400014004000340140004C014061
:1009F000005001400054014000180040001C00401D
:100A000000200040004001400044014000480140F7
:100A10004FF6FF7606EA05252A434DF6FF752B4073
:100A20000D8906EA05352B434D8806EA05352B432B
:100A3000FA4DA84202D0FA4DA84208D14BF6FF75F4
:100A40002C408D894FF6FF7606EA85152C4384806D
:100A50008283CD88A0F84050038470BD828B4FF212
:100A6000FF331A408283828B4FF6FF7303EA012320
:100A70001A4382837047F0B50C46154600220021C8
:100A80000026078C4EF6FF7C07EA0C070784828B52
:100A9000018C4FF6FF7707EA043640F6FF473A40ED
:100AA0004FF6FF7707EA05273A434FF6FF7707EA45
:100AB00003373A43D94FB8420ED0D94FB8420BD082
:100AC000B0F1804F08D0D74FB84205D0D64FB842CA
:100AD00002D0D64FB84206D14DF6FF77394046F4E2
:100AE0008057394305E047F6FF57394044F48057B3
:100AF000394382830184F0BD828B4FF6F3731A4031
:100B00008283828B0A4382837047F0B50C46154678
:100B1000002200210026078C4FF6FF6C07EA0C0725
:100B20000784828B018C4FF6FF7707EA04264FF685
:100B30000C773A404FF6FF7707EA03172F433A4303
:100B4000B64FB8420ED0B64FB8420BD0B0F1804F7E
:100B500008D0B44FB84205D0B34FB84202D0B34F1B
:100B6000B84206D14FF6FF57394046F480773943F3
:100B700005E04FF2FF57394044F4807739438283D0
:100B80000184F0BD028B4FF2FF331A400283028BC7
:100B90004FF6FF7303EA01231A4302837047F0B54F
:100BA0000C461546002200210026078C4FF6EF7CEC
:100BB00007EA0C070784028B018C4FF6FF7707EAE0
:100BC000041640F6FF473A404FF6FF7707EA03372F
:100BD0003A434FF6FF7707EA05273A438F4FB8426B
:100BE0000ED08F4FB8420BD0B0F1804F08D08D4F50
:100BF000B84205D08C4FB84202D08C4FB84206D1D3
:100C00004FF6DF77394046F01007394305E04FF6DD
:100C10005F77394044F01007394302830184F0BD07
:100C2000028B4FF6F3731A400283028B0A4302834E
:100C30007047F0B50C46154600220021068C4FF691
:100C4000FE773E400684028B018C4FF60C763240D4
:100C50007E1C06EA03162E433243704EB0420ED07D
:100C60006F4EB0420BD0B0F1804F08D06D4EB04205
:100C700005D06D4EB04202D06C4EB04206D14FF658
:100C8000FD76314044F00106314305E04FF6F5763C
:100C9000314044F00106314302830184F0BD70B558
:100CA00005460C465D4885420ED05D4885420BD016
:100CB000B5F1804F08D05B48854205D05A4885423F
:100CC00002D05A48854200D100E000BF208850B9C8
:100CD0002389A28861882846FFF7ABFFE188284670
:100CE000FFF79EFF25E0208804280AD12389A288E7
:100CF00061882846FFF753FFE1882846FFF742FF47
:100D000017E0208808280AD12389A288618828460C
:100D1000FFF7FBFEE1882846FFF7EEFE09E0238996
:100D2000A28861882846FFF7A6FEE1882846FFF7DB
:100D300095FE70BD2DE9F04105460C4600260127C1
:100D4000608808B9022600E00026A088012801D1A9
:100D5000022700E001272088A0B92389A2886188A2
:100D60002846FFF766FFE1882846FFF759FF2389E9
:100D70003A4631462846FFF712FFE1882846FFF73A
:100D800001FF13E02389A28861882846FFF707FF47
:100D9000E1882846FFF7F6FE23893A463146284681
:100DA000FFF747FFE1882846FFF73AFFBDE8F081EB
:100DB0000A884B881A438B881A43CB881A430B89BD
:100DC0001A434B891A438B891A43A0F84420704771
:100DD0004FF6FF71818000210180C1804180017246
:100DE00070470021018041808180C1800181418163
:100DF0008181C18170470021018041800121818072
:100E00000021C180018170470021018041808180E3
:100E1000C18001814181818170470000002C014027
:100E2000003401400004004000080040000C004075
:100E300021B1028842F00102028004E002884FF6EC
:100E4000FE731A400280704731B1B0F8442042F47A
:100E50000042A0F8442005E0B0F84420C2F30E029E
:100E6000A0F8442070471AB183890B43838102E0C4
:100E700083898B43838170478182704741EA0203F3
:100E8000A0F8483070471AB183890B43838102E090
:100E900083898B438381704701894FF6F872114033
:100EA000018170470A46002101894FF68F7319406E
:100EB00011430181704730B504460D46294620464E
:100EC000FFF7F0FF208940F00700208130BD2DE9B9
:100ED000F04104460D4616461F46602D06D13B469E
:100EE000012231462046FFF75AFE05E03B4601222B
:100EF00031462046FFF79DFE29462046FFF7D2FFE8
:100F0000208940F007002081BDE8F08130B50C4613
:100F100000210189C9B24FF6FF7505EA0325154383
:100F200025432943018130BD2DE9F04105460E4698
:100F300017469846002443463A4631462846FFF76E
:100F4000E5FF2C894FF6F870044044F007044FF693
:100F50008F70044044F070042C81BDE8F081F0B53E
:100F600004460D4616461F463B4632462946204655
:100F7000FFF7CCFF208940F480402081F0BD01853F
:100F8000828270470A46002101884FF68F7319400C
:100F9000114301807047F0B50C4615461E460021EE
:100FA000002200230189028B038C4FF6F877394029
:100FB00021434FF6FC473A4040F201173A434FF6BF
:100FC000DD773B404FF6FF7707EA06172F433B4399
:100FD000018102830384F0BD0A460021018B4FF694
:100FE0008F7319401143018370470A460021018B1A
:100FF00048F6FF7319404FF6FF7303EA02231943C3
:10100000018370470A460021818B4FF68F73194088
:101010001143818370470A460021818B48F6FF7394
:1010200019404FF6FF7303EA022319438183704787
:1010300021B1028842F08002028004E002884FF66B
:101040007F731A400280704721B1828842F0040207
:10105000828004E082884FF6FB731A4082807047DA
:1010600021B1828842F00802828004E082884FF633
:10107000F7731A408280704721B1828842F00102E2
:10108000828004E082884FF6FE731A4082807047A7
:101090000A460021018B4FF6F77319401143018373
:1010A00070470A460021018B4FF2FF7319404FF63B
:1010B000FF7303EA02231943018370470A460021A4
:1010C000818B4FF6F77319401143818370470A46AD
:1010D0000021818B4FF2FF7319404FF6FF7303EA33
:1010E00002231943818370470A460021018B4FF682
:1010F000FB7319401143018370470A460021018B9D
:101100004FF6FF3319404FF6FF7303EA02231943EA
:10111000018370470A460021818B4FF6FB7319400B
:101120001143818370470A460021818B4FF6FF33BC
:1011300019404FF6FF7303EA022319438183704776
:101140000A460021018B4FF67F731940114301833A
:1011500070470A460021018BC1F30E014FF6FF7361
:1011600003EA02231943018370470A460021818B59
:101170004FF67F7319401143818370470A4600215F
:10118000818BC1F30E014FF6FF7303EA022319436B
:10119000818370470A460021018C4FF6FD73194088
:1011A0001143018470470A460021018C4FF6F77302
:1011B00019401143018470470A460021018C4FF603
:1011C000DF7319404FF6FF7303EA021319430184DA
:1011D00070470A460021018C4FF67F7319404FF685
:1011E000FF7303EA02131943018470470A46002182
:1011F000018C4FF6FF5319404FF6FF7303EA0223A9
:101200001943018470470A460021018C4FF2FF7395
:1012100019404FF6FF7303EA022319430184704714
:101220000A460021018C4DF6FF7319404FF6FF73FB
:1012300003EA023319430184704730B500230124C7
:101240008C40A3B2048C9C430484048C02FA01F504
:10125000ADB22C43048430BD30B5002304248C404F
:10126000A3B2048C9C430484048C02FA01F5ADB251
:101270002C43048430BD70B503460020002418467A
:10128000183001258D40ACB21D8CA5431D8409B1D9
:10129000082909D100EB6100056825F0700505609B
:1012A0000568154305600EE00D1FC5F34E05284483
:1012B000056825F4E045056005684FF6FF7606EA07
:1012C00002263543056070BD21B1028842F002025A
:1012D000028004E002884FF6FD731A4002807047D6
:1012E00021B1028842F00402028004E002884FF635
:1012F000FB731A400280704721B1828842F080025D
:10130000828004E082884FF67F731A4082807047A3
:1013100002884FF6F7731A40028002880A4302805F
:10132000704782884FF68F731A40828082880A4302
:101330008280704702894FF6F8731A400281028951
:101340000A430281704702894FF67F731A40028177
:1013500002890A4302817047818470478185704702
:10136000818670470187704781877047A0F84010D9
:10137000704702884FF6FF431A40028002880A43F2
:10138000028070470146888E70470146088F70477B
:101390000146888F70470146B1F84000704701460A
:1013A000888C70470146088D704702460020138ADA
:1013B0000B400BB1012000E000207047CA430282BD
:1013C000704730B50246002000230024158A05EA44
:1013D0000103958905EA010413B10CB1012000E075
:1013E000002030BDCA4302827047000010B56FF084
:1013F000040004F098F82E4800682E49B0FBF1F084
:101400002D4908700846007800EB4001C1EBC01080
:101410004FF6FF7101EAC0002849088010BD01465F
:10142000254A12784A434FF0E0235A6100229A611C
:101430001A46126942F001021A6100BF4FF0E02221
:10144000106900F001021AB100F48032002AF5D0D0
:101450004FF0E022126922F001024FF0E0231A61FE
:1014600000229A6170470146144A12884A434FF09D
:10147000E0235A6100229A611A46126942F0010281
:101480001A6100BF4FF0E022106900F001021AB1AA
:1014900000F48032002AF5D04FF0E022126922F0E9
:1014A00001024FF0E0231A6100229A6170470000A8
:1014B0000000002000127A00140000201600002016
:1014C000014600BF704700BF4B4A128802F040023D
:1014D000002AF9D0C2B2484B1B1D1A80704710B5C4
:1014E00086B00446012144F2040004F057FB424850
:1014F00004F0B8FB4FF40070ADF8140003208DF831
:10150000160018208DF8170005A93C4804F08AF849
:101510004FF48060ADF8140004208DF8170005A981
:10152000364804F07FF825208DF8000003208DF860
:1015300001008DF8020001208DF80300684603F0D9
:10154000A8FF01940020ADF80800ADF80A00ADF83E
:101550000C00ADF810000C20ADF80E0001A92648D3
:1015600004F0C3FB012240F22551234804F055FC4E
:101570000121214804F045FC06B010BD10B540F231
:1015800025511D4804F02EFD10B31B4804F0AAFCA1
:10159000C4B21B48008800F40040C8B9184800884D
:1015A00000F4804060B10A2C03D000201449088068
:1015B00020E01348008840F400401149088019E0F9
:1015C0000D2C06D10E48008840F480400C4908805C
:1015D00010E00B480088C0F30D000A490C5408487D
:1015E0000088401C0649088008460088C72801DD9D
:1015F0000020088010BD00000038014000080140B4
:101600001C00002078000020094880470948004756
:10161000FEE7FEE7FEE7FEE7FEE7FEE7FEE7FEE7A2
:10162000FEE7FEE704480549054A064B70470000FF
:10163000CF04000831010008B0010020B0070020ED
:10164000B0030020B003002008B50121102004F0F1
:10165000A5FA4FF44040ADF8000010208DF80300CB
:1016600003208DF802006946FC4803F0DBFF0120EF
:10167000FB490860FB49C1F8BC0108BD10B5012059
:10168000F7490860F749C1F8BC01FFF7C8FE002020
:10169000F349091D0860F349C1F8B80110BD10B540
:1016A0000020EF490860EF49C1F8BC010120FFF7B5
:1016B000B6FE0120EA490860EA49C1F8BC0110BD44
:1016C00070B50446002518E004F0800020B1012028
:1016D000E349091D086003E00020E149091D086095
:1016E0000120DF490860FFF79AFE0020DD49C1F8BC
:1016F000B8016006040E681CC5B2082DE4DB0120A9
:10170000D749091D0860D749C1F8B801FFF787FE1E
:101710000020D349086070BD10B50446FFF7AEFF46
:101720007820FFF7CDFF4020FFF7CAFF2046FFF7E4
:10173000C7FFFFF7B4FF10BD10B50446FFF79EFFCB
:101740007820FFF7BDFF0020FFF7BAFF2046FFF724
:10175000B7FFFFF7A4FF10BD70B504460D4605F1B5
:10176000B001C8B2FFF7E8FF102141EA1410FFF7FB
:10177000E3FF04F00F0141F00100FFF7DDFF70BD52
:1017800070B50646002415E004F1B001C8B2FFF7B9
:10179000D3FF0120FFF7D0FF1020FFF7CDFF00257A
:1017A00004E03046FFF7B8FF681CC5B2802DF8DBB7
:1017B000601CC4B2082CE7DB70BD70B5002415E0D6
:1017C00004F1B001C8B2FFF7B7FF0120FFF7B4FF83
:1017D0001020FFF7B1FF002504E00020FFF79CFF79
:1017E000681CC5B2802DF8DB601CC4B2082CE7DB96
:1017F00070BD10B54FF4FA70FFF735FEAE20FFF75D
:101800009BFF0020FFF798FF1020FFF795FF402077
:10181000FFF792FF8120FFF78FFFCF20FFF78CFFAC
:10182000A120FFF789FFC820FFF786FFA620FFF75A
:1018300083FFA820FFF780FF3F20FFF77DFFD32025
:10184000FFF77AFF0020FFF777FFD520FFF774FF3F
:101850008020FFF771FFD920FFF76EFFF120FFF71F
:101860006BFFDA20FFF768FF1220FFF765FFDB2030
:10187000FFF762FF4020FFF75FFF2020FFF75CFFCC
:101880000220FFF759FF8D20FFF756FF1420FFF7C6
:1018900053FFA420FFF750FFA620FFF74DFFAF2016
:1018A000FFF74AFF0020FFF76BFF00210846FFF714
:1018B00053FF10BD2DE9F0470446884615464FF00A
:1018C00000090026002720E0E85D203800F0FF092D
:1018D0007E2C04DD002408F1010000F0FF084146E1
:1018E0002046FFF739FF002609E009EB49015E4A6F
:1018F00002EB4101885DFFF70FFF701CC6B2062E98
:10190000F3DBA01DC4B2781CC7B2E85D0028DBD1B0
:10191000BDE8F0872DE9F04706460F4690460025C2
:101920000024A14631E018F809002038C5B2782E0D
:1019300002DD0026781CC7B239463046FFF70CFF9F
:10194000002407E004EB0511484A505CFFF7E4FE71
:10195000601CC4B2082CF5DB781CC1B23046FFF71E
:10196000FBFE002408E004EB051108313F4A505CFF
:10197000FFF7D2FE601CC4B2082CF4DB06F10800AD
:10198000C6B209F1010000F0FF0918F809000028AB
:10199000C9D1BDE8F0872DE9F04180460E461746D3
:1019A00000247D0131464046FFF7D6FE00BF06E029
:1019B0002F49485DFFF7B0FE6D1C601CC4B2102CAF
:1019C000F6DB701CC1B24046FFF7C6FE002406E0FD
:1019D0002749485DFFF7A0FE6D1C601CC4B2102CA7
:1019E000F6DBBDE8F0812DE9F05F06460F46904634
:1019F0001C46DDF828A04FF0000BE11704EB5171F5
:101A0000C910A4EBC10131B92046E11704EB5171B3
:101A1000C1F3C70506E02046E11704EB5171C91078
:101A2000491CCDB23D4614E029463046FFF794FEEE
:101A3000B1460AE059460BF1010B1AF80100FFF715
:101A40006BFE09F1010000F0FF09C145F2DB681CE3
:101A5000C5B2A542E8DBBDE8F09F000000100140E0
:101A6000B8012242000022420E8500083687000895
:101A70000E8100082DE9F04105460C462046E1178D
:101A800004EB5171C910A4EBC101CEB22046E1179D
:101A900004EB5171C1F3C70739462846FFF75CFED6
:101AA0001649885DFFF738FEBDE8F0812DE9F04169
:101AB00007460C462046E11704EB5171C910A4EB10
:101AC000C101CDB22046E11704EB5171C1F3C70843
:101AD0000120A840C043C6B241463846FFF73CFE4D
:101AE0000649495D01EA0600FFF716FE2A4631461F
:101AF00003A004F0E1FABDE8F0810000268D0008A3
:101B00000D0A206372203D20257820207931203D68
:101B10002025640D0A00000070B505460C4603F050
:101B2000C5F9D02003F07AFA03F005FA18B103F0F2
:101B3000E1F9012070BD284603F070FA03F0FBF9CB
:101B4000204603F06BFA03F0F6F918B103F0D2F96E
:101B50000120EFE703F0CEF90020EBE770B5044673
:101B60000025BC2C01DB012510E0622C01DB0225E5
:101B70000CE02A2C01DB032508E0142C01DB0425F2
:101B800004E00A2C01DB052500E0062529461A2081
:101B9000FFF7C2FF70BD70B50446B4F57A7F01DD72
:101BA0004FF47A74042C00DA04244FF47A7090FB1A
:101BB000F4F0401EC5B229461920FFF7ADFF0546D7
:101BC000264604EBD671C1F34F00FFF7C7FF70BD87
:101BD00070B5044603F06AF9D02003F01FFA03F051
:101BE000AAF9204603F01AFA03F0A5F903F05EF90A
:101BF000D12003F013FA03F09EF9002003F03DFA20
:101C0000054603F077F9284670BD10B50446E00696
:101C1000010E1C20FFF780FF10BD10B50446E00642
:101C2000010E1B20FFF778FF10BD10B503F024F95B
:101C300080216B20FFF770FF6420FFF714FC002168
:101C40006B20FFF769FF0320FFF7E7FF0020FFF796
:101C5000DCFF3220FFF79FFF00213820FFF75CFFF9
:101C600000216A20FFF758FFFF212320FFF754FFD0
:101C700080213720FFF750FF7520FFF7A9FF0446AA
:101C8000682C0BD101216B20FFF746FF00216C204F
:101C9000FFF742FF3220FFF77EFF01E0012010BD79
:101CA0000020FCE72DE9F04106460F4614461D468C
:101CB00003F0FCF8002141EA4601C8B203F0AEF996
:101CC00003F039F920B103F015F90120BDE8F081E6
:101CD000384603F0A3F903F02EF903F0E7F80121E9
:101CE00001EB4601C8B203F099F903F024F90DE0C5
:101CF000012C04D1002003F0C0F9287003E001207A
:101D000003F0BBF92870601EC4B26D1C002CEFD12B
:101D100003F0F0F80020D9E72DE9F84F6B460222D6
:101D200041216820FFF7BEFF9DF801009DF80010DB
:101D300040EA01200FFA80FA504605F0DFFA8046AB
:101D400000224B4B05F082F906464A4A4A4B05F001
:101D5000CDF8044605F098F883464849584605F002
:101D6000EBFF044605F04CFF00B2BDE8F88F2DE90B
:101D7000FC4104460D4616466B4606224321682068
:101D8000FFF790FF0746BFB99DF801009DF80010CE
:101D900040EA012000B220809DF803009DF8021067
:101DA00040EA012000B228809DF805009DF804104B
:101DB00040EA012000B230803846BDE8FC812DE9C0
:101DC000FC4104460D4616466B4606223B21682020
:101DD000FFF768FF0746BFB99DF801009DF80010A6
:101DE00040EA012000B220809DF803009DF8021017
:101DF00040EA012000B228809DF805009DF80410FB
:101E000040EA012000B230803846BDE8FC812DE96F
:101E1000F04105460E461746984603F047F8002164
:101E200041EA4501C8B203F0F9F803F084F820B1A3
:101E300003F060F80120BDE8F081304603F0EEF8D1
:101E400003F079F800240CE018F8040003F0E6F839
:101E500003F071F818B103F04DF80120EBE7601CB6
:101E6000C4B2BC42F0DB03F045F80020E3E7000019
:101E700000407540A4703D0AD74342400000C8426C
:101E800038B50446F74890F82400C0B114B10220D8
:101E9000009001E000200090F24A1268D17BF14AE4
:101EA000526810786B460122FFF7B1FF10B14FF076
:101EB000FF3038BD9DF80010EA48417423E0E9483E
:101EC000807A10B94FF0FF30F3E724B1E548407C49
:101ED00008B10020EDE714B10120009001E00020DE
:101EE0000090E04A1268D17BDE4A526810786B4657
:101EF0000122FFF78CFF10B14FF0FF30D9E79DF8BA
:101F00000010D84841740020D3E738B500241FE002
:101F1000D4480068C07AA04204D0D2480068407D0E
:101F2000A04200D112E0CF49496808786B460122EF
:101F30002146FFF7B7FE10B14FF0FF3038BD9DF8D6
:101F400000202146C8A004F0B7F800BF601CC4B24E
:101F5000C44840680079A042DADC0020EEE770B5A2
:101F600004460D46BF480068C07AA04204D0BD4870
:101F70000068407DA04202D14FF0FF3070BDB948EB
:101F800040680079A04202DC4FF0FF30F6E7B54927
:101F9000496808782B4601222146FFF783FEEDE7CA
:101FA00038B50446AF4890F82300A04201D1002084
:101FB00038BD14B13020009001E000200090A94805
:101FC000807C20B19DF8000040F002000090A54800
:101FD00090F8220020B19DF8000040F080000090B1
:101FE000A04A1268117D9F4A526810786B46012200
:101FF000FFF70DFF10B14FF0FF30D9E7994880F897
:1020000023400020D4E738B5044604F0700010B136
:102010000120009005E014B10020009001E0402074
:102020000090904A1268917C8E4A526810786B46F4
:102030000122FFF7ECFE20B100218A488172481E80
:1020400038BD9DF8000020F0400186480173002053
:10205000009004F0400020B99DF8000040F004001A
:10206000009004F0200020B99DF8000040F002002C
:10207000009004F0100020B99DF8000040F001002D
:10208000009004F0080020B99DF8000040F03800EE
:102090000090744A1268D17C724A526810786B467C
:1020A0000122FFF7B4FE20B100216E488172481E64
:1020B000C6E724B1082C02D00020FFF771FF694861
:1020C0008472002101753220FFF7CDF90020B7E7B7
:1020D00038B504466348807CA04201D1002038BD59
:1020E000002C46D05F4A126811795E4A5268107817
:1020F0006B460122FFF7D6FD10B14FF0FF30EEE73F
:102100009DF8000020F020000090564A12681179D6
:10211000544A526810786B460122FFF778FE10B1DE
:102120004FF0FF30DBE70320FFF79DF9022000901E
:102130004C4890F8220020B19DF8000040F080004B
:102140000090484890F8230020B19DF8000040F02E
:1021500030000090434A1268117D424A526810785C
:102160006B460122FFF753FE002851D04FF0FF309D
:10217000B5E73C4A126811793A4A526810786B46C2
:102180000122FFF78FFD10B14FF0FF30A7E7354870
:10219000807A00F0010028B19DF8000040F0200096
:1021A000009004E09DF8000020F0200000902D4AEF
:1021B000126811792B4A526810786B460122FFF79A
:1021C00026FE10B14FF0FF3089E70320FFF74BF9EF
:1021D000244890F8220010B18020009001E00020F7
:1021E0000090204890F8230020B19DF8000040F0B6
:1021F000300000901B4A1268117D1A4A526810780C
:102200006B460122FFF703FE10B14FF0FF3066E787
:1022100014488474002062E708B51248807A10B927
:102220004FF0FF3008BD002000900E4A1268D17BAD
:102230000C4A526810786B460122FFF7E8FD10B196
:102240004FF0FF30EEE7074A12685179054A5268AD
:1022500010786B460122FFF7DAFD68B14FF0FF30CE
:10226000E0E7000020000020252335783A202523D0
:1022700035780D0A00000000F84A12681179F74A13
:10228000526810786B460122FFF7C1FD10B14FF084
:10229000FF30C7E7F14890F82400002853D00C2005
:1022A0000090EE4A12681179EC4A526810786B4639
:1022B0000122FFF7ACFD10B14FF0FF30B2E7322042
:1022C000FFF7D1F8C0200090E448807A00F00100C8
:1022D00020B19DF8000040F020000090DF4A126815
:1022E0001179DE4A526810786B460122FFF78FFDA4
:1022F00010B14FF0FF3095E7D848407C10B1022074
:10230000009001E000200090D44A1268D17BD34AAB
:10231000526810786B460122FFF779FD10B14FF03B
:10232000FF307FE700200090CC4A12685179CB4AF9
:10233000526810786B460122FFF769FD002855D0DE
:102340004FF0FF306EE704200090C44A1268117904
:10235000C24A526810786B460122FFF758FD10B14F
:102360004FF0FF305EE7BD48807C20B9BB48807AE3
:1023700000F0010010B94020009001E060200090C2
:10238000B64A12681179B54A526810786B46012234
:10239000FFF73DFD10B14FF0FF3043E73220FFF76C
:1023A00062F8AE48407C10B10120009001E00020AE
:1023B0000090AA4A1268D17BA84A526810786B46EE
:1023C0000122FFF724FD10B14FF0FF302AE7A34AA6
:1023D00012685179A14A52681078A04B103301223B
:1023E000FFF715FD10B14FF0FF301BE7002019E794
:1023F00070B50446002624F00104984890F82400A3
:1024000008B1002070BD9548807A10B94FF0FF30B8
:10241000F8E79248057C807A204090490874084685
:10242000007CA04202D04FF0FF3600E0002614B935
:102430008A48007D18B10120FFF722FD02E000204C
:10244000FFF71EFD3CB1FFF7E7FE20B1834805749E
:102450004FF0FF30D6E73046D4E738B504467F4822
:10246000807A10B94FF0FF3038BDBC2C02DB012060
:10247000009015E0622C02DB0220009010E02A2C74
:1024800002DB032000900BE0142C02DB0420009000
:1024900006E00A2C02DB0520009001E006200090F7
:1024A0006E48C07A9DF80010884201D10020DBE719
:1024B0006A4A12689178694A526810786B4601221C
:1024C000FFF7A5FC10B14FF0FF30CDE79DF80010ED
:1024D0006248C1720020C7E738B50446282C02DDE7
:1024E0004FF0FF3038BDDCB90020FFF759FD002068
:1024F0008DF8000007208DF80100584A1268917C81
:10250000564A526810786B460222FFF780FC10B1E1
:102510004FF0FF30E6E70021504801750020E1E769
:102520000120FFF73DFD20208DF80000012C06D191
:1025300000208DF801000520FFF78FFF17E0052C24
:1025400006DC01208DF801000520FFF786FF0EE074
:10255000142C06DC02208DF801000A20FFF77DFF15
:1025600005E003208DF801001420FFF776FF9DF8A9
:102570000100072101EB8010C0B28DF80100374A3D
:102580001268917C354A526810786B460222FFF738
:102590003EFC10B14FF0FF30A4E708212F488172B4
:1025A00000210173012101750020FFF721FF0020A8
:1025B00098E738B504462948807A10B94FF0FF30C3
:1025C00038BD264890F8240010B14FF0FF30F7E7EF
:1025D0002248007D50B134B1282C04DCE0B2FFF772
:1025E0007BFF0020ECE70020FFF776FF042C01DAE8
:1025F000042404E0B4F57A7F01DD4FF47A744FF4DB
:102600007A7090FBF4F0401EC0B20090134A12683A
:102610005178124A526810786B460122FFF7F7FB97
:1026200010B14FF0FF30CBE79DF80000401C4FF495
:102630007A7191FBF0F081B20848C1810146C989E5
:102640004810FFF70AFF0020BAE738B504460348F0
:10265000807A28B94FF0FF3038BD000020000020FC
:10266000022C06D0042C07D0082C08D0102C0CD13A
:1026700008E0002000900BE00820009008E0102007
:10268000009005E01820009002E04FF0FF30E3E7F3
:1026900000BFF948407A9DF80010B0EBE10F01D17E
:1026A0000020D9E7F44A1268D179F34A52681078C9
:1026B0006B460122FFF7ABFB10B14FF0FF30CBE7C9
:1026C0009DF80000C110EC4841720020C4E738B505
:1026D0000446E948807A10B94FF0FF3038BDFA2C33
:1026E00009D0B4F5FA7F09D0B4F57A7F09D0B4F5F2
:1026F000FA6F0CD108E0002000900BE00820009059
:1027000008E01020009005E01820009002E04FF053
:10271000FF30E3E700BFD848007A9DF80010B0EB27
:10272000E10F01D10020D9E7D34A12689179D24A4A
:10273000526810786B460122FFF769FB10B14FF029
:10274000FF30CBE79DF80000C010CB490872002095
:10275000C4E71CB580208DF80000C74A1268917C40
:10276000C54A526810786B460122FFF750FB10B142
:102770004FF0FF301CBD6420FEF775FE00208DF881
:102780000000BD4A1268917CBB4A526810786B46C3
:102790000122FFF73CFB10B14FF0FF30EAE7B64AE9
:1027A0001268917DB44A526810786B460622FFF792
:1027B00079FA10B14FF0FF30DCE79DF80500C00753
:1027C000400F9DF8031001F0010140EA41009DF81F
:1027D000011001F0010140EA010494B1012C03D180
:1027E0000121A548C17431E0022C03D10021A24887
:1027F000C1742BE02146A1A003F05EFC4FF0FF3036
:10280000B8E79D4A1268D1789B4A526810786B46A7
:102810000122FFF747FA10B14FF0FF30AAE79DF809
:10282000000000F00F042CB99E4803F045FC4FF067
:10283000FF309FE7042C06D19BA003F03DFC012153
:102840008D48C17402E000218B48C174FF218A4881
:102850008172FF2088490872FF2187484172C17246
:102860004FF6FF71C181FF21017481740121017351
:1028700080F82210002180F8231041750175163070
:10288000016041608160163880F8241080F82510BE
:10289000C1844FF4FA60FFF71AFF10B14FF0FF3018
:1028A00068E70220FFF7D1FE10B14FF0FF3061E77B
:1028B0002A20FFF7D2FD10B14FF0FF305AE7322047
:1028C000FFF777FE10B14FF0FF3053E70020FFF71E
:1028D0008FFD10B14FF0FF304CE70020FFF7F8FB01
:1028E00010B14FF0FF3045E70020FFF78CFB0020D0
:1028F00040E770477CB504460D465F48807A00F09B
:10290000700010B94FF0FF307CBD5B4A1268117B3C
:10291000594A526810786B460622FFF7C3F910B186
:102920004FF0FF30F0E79DF801009DF8001040EAFD
:10293000012000B220809DF803009DF8021040EABB
:10294000012000B260809DF805009DF8041040EA67
:10295000012000B2A08015B12846FFF7CAFF002071
:10296000D2E77CB504460D464348807A00F0080063
:1029700010B94FF0FF307CBD3F4A1268517B3E4A90
:10298000526810786B460622FFF78CF910B14FF0B1
:10299000FF30F0E79DF801009DF8001040EA0120AB
:1029A00000B220809DF803009DF8021040EA01204B
:1029B00000B260809DF805009DF8041040EA0120F7
:1029C00000B2A08015B12846FFF793FF0020D2E7A0
:1029D0002DE9FE4F05460C462748807A18B94FF07E
:1029E000FF30BDE8FE8F244A1268917B224A52686C
:1029F000107802AB0222FFF755F910B14FF0FF300B
:102A0000EFE79DF809009DF8081040EA012006B2A2
:102A100014B12046FFF76DFF17494968C88805F0D3
:102A200043F9154901904968B1F9080005F024F906
:102A30008346304605F020F95946009005F07AFAB1
:102A40008246019904F0E6FF81461F4904F074FFB5
:102A500080464FF08F4105F06FF9074605F0D0F83A
:102A600028600020BDE710B588B004461CB94FF0BF
:102A7000FF3008B010BD29E020000020556E7375AE
:102A800070706F7274656420736F667477617265BD
:102A90002070726F64756374207265762025642ED1
:102AA0000A000000A09A000848616C662073656EF9
:102AB0007369746976697479207061727420666FC5
:102AC000756E642E0A00000000000C42206830B9C8
:102AD000606820B9A06810B9002008B010BDFA499C
:102AE0004968087806AB03221146FFF7DBF810B1FE
:102AF0004FF0FF30F1E79DF81800082101EB20109E
:102B000000F00F00ADF800009DF8190001EB201057
:102B100000F00F00ADF802009DF81A0001EB201044
:102B200000F00F00ADF8040020684100BDF900007E
:102B3000403091FBF0F000B2ADF810006068410049
:102B4000BDF90200403091FBF0F000B2ADF8120088
:102B5000A0684100BDF90400403091FBF0F000B2E4
:102B6000ADF81400D8494968087806AB062211462A
:102B7000FFF798F810B14FF0FF30AEE79DF819005D
:102B80009DF8181040EA012000B2ADF808009DF849
:102B90001B009DF81A1040EA012000B2ADF80A00AF
:102BA0009DF81D009DF81C1040EA012000B2ADF810
:102BB0000C00BDF81000BDF80810084400B2ADF8D4
:102BC0001000BDF81200BDF80A10084400B2ADF8BC
:102BD0001200BDF81400BDF80C10084400B2ADF8A6
:102BE0001400BDF81000000A8DF81800BDF81000A0
:102BF000C0B28DF81900BDF81200000A8DF81A0055
:102C0000BDF81200C0B28DF81B00BDF81400000A18
:102C10008DF81C00BDF81400C0B28DF81D00AA4943
:102C20004968087806AB06221146FFF7F0F810B1A4
:102C30004FF0FF3051E700204FE70146A248007AED
:102C400030B1012807D0022809D003280FD10AE0AB
:102C5000FA2008800EE04FF4FA7008800AE04FF482
:102C60007A70088006E04FF4FA60088002E00020E5
:102C7000088000BF00BF0020704701469248407A9C
:102C800030B1012807D0022808D003280CD108E071
:102C9000022008700BE00420087008E0082008708B
:102CA00005E01020087002E04FF0FF30704700BFD1
:102CB0008548C07C18B108784006000E08700020D6
:102CC000F4E701468048C07A082817D2DFE800F010
:102CD0001704070A0D101318BC20088013E06220A7
:102CE000088010E02A2008800DE0142008800AE007
:102CF0000A20088007E00520088004E000BF00BF2C
:102D00000020088000BF00BF0020704701466E48C9
:102D100090F8240010B14FF0FF3070476A48C08926
:102D200008800020F9E7014600200880401E704717
:102D300001464FF0FF30704701466348007A30B1DA
:102D4000012807D0022808D003280CD108E05F48EA
:102D500008600BE05E48086008E05E48086005E037
:102D60005D48086002E04FF0FF30704700BF002070
:102D7000FBE701465448407A30B1012808D00228C8
:102D80000AD0032810D10BE04FF4804008800EE0F9
:102D900041F69C7008800AE04FF48050088006E0FD
:102DA0004FF40060088002E04FF0FF30704700BF32
:102DB0004548C07C10B10888401008800020F5E725
:102DC00001464148007C08700020704701463E489B
:102DD000807A10B10120087001E000200870002006
:102DE000704738B504463848807A10B94FF0FF3044
:102DF00038BD354A1268117C334A526810786B46E8
:102E00000222FEF74FFF10B14FF0FF30F0E79DF8C0
:102E100001009DF8001040EA012000B2208000204F
:102E2000E6E72DE9FE4F0746884692461D46DDF847
:102E300030B000260024244890F8240010B1601E11
:102E4000BDE8FE8F002028701F48807A10B94FF02F
:102E5000FF30F5E71C48007C10B94FF0FF30EFE77A
:102E60001948007C00F0400008B1B01CC6B21648FA
:102E7000007C00F0200008B1B01CC6B21248007CF3
:102E800000F0100008B1B01CC6B20F48007C00F082
:102E9000080008B1B01DC6B20B4A1268917A0A4AFE
:102EA000526810786B460222FEF7FCFE10B14FF01C
:102EB000FF30C5E79DF801009DF8001040EA0129A8
:102EC000B1450BDA0020BBE72000002000000343DF
:102ED000000083423333034233338341FC4840686C
:102EE0004088B9EB600F17DDF94A1268517CF84A47
:102EF000526810786B460122FEF7D4FE10B14FF0F5
:102F0000FF309DE79DF8000000F0100020B1FFF7B2
:102F100083F96FF0010093E75046FFF7EAFCEC4AB3
:102F20001268D17AEA4A526810786B463246FEF748
:102F3000B9FE10B14FF0FF3082E799FBF6F0401E6A
:102F40008BF8000000202870B4422AD0E048007CB2
:102F500000F0080028B3601C1DF800001DF80410E4
:102F600040EA012000B2A8F80000E01C1DF80010A3
:102F7000A01C1DF8000041EA002000B2A8F80200E1
:102F8000601D1DF80010201D1DF8000041EA002002
:102F900000B2A8F80400287840F008002870A01DAE
:102FA00084B2B44213D0CA48007C00F0400070B133
:102FB000601C1DF800001DF8041040EA012000B25A
:102FC0003880287840F040002870A01C84B2B442B9
:102FD00013D0BF48007C00F0200070B1601C1DF8C9
:102FE00000001DF8041040EA012000B27880287823
:102FF00040F020002870A01C84B2B44213D0B44822
:10300000007C00F0100070B1601C1DF800001DF87D
:10301000041040EA012000B2B880287840F0100087
:103020002870A01C84B200200AE7F8B504460F46B9
:103030001646A74890F8240010B94FF0FF30F8BDAD
:10304000A348807A10B94FF0FF30F8E7A04A126821
:10305000917A9F4A526810786B460222FEF722FE50
:1030600010B14FF0FF30EAE79DF801009DF8001025
:1030700040EA0125A54203DA00203070401EDEE759
:10308000934840684088B5EB600F17DD904A12689E
:10309000517C8F4A526810786B460122FEF702FE7F
:1030A00010B14FF0FF30CAE79DF8000000F01000AB
:1030B00020B1FFF7B1F86FF00100C0E7E2B2844B36
:1030C0001B68D97A824B5B6818783B46FEF7EAFDAD
:1030D00010B14FF0FF30B2E795FBF4F0401E3070B6
:1030E0000020ACE701467A4880F8221000207047A3
:1030F0007CB5054676494968087801AB04220D2164
:10310000FEF7D0FD08B107207CBD9DF80700C0F395
:1031100001109DF8041001F0E00140EAE1008DF893
:1031200000009DF80700C0F381009DF8051001F034
:10313000E00140EAE1008DF801009DF8070000F091
:1031400003009DF8061001F0E00140EAE1008DF86F
:10315000020000241CE01DF8040018B9002045F806
:10316000240013E05B4845F8240006E055F82400ED
:10317000594904F0E1FD45F824001DF80400401E03
:10318000C0B20DF804000028F0D100BF601CC4B22A
:10319000032CE0DB0020B7E72DE9FE4F06460F4683
:1031A00000256846FFF7A4FF002442E056F82400FB
:1031B00057F82410A0EB010ABAF1000F01DB5146C9
:1031C00001E0CAF10001084604F056FD83464FF0C5
:1031D0008F4104F01FFC80465DF82400002104F0BC
:1031E000DBFC16D05DF82410404604F013FC824648
:1031F0004FF07E5104F09EFE814629F0004A374888
:10320000416A504604F064FE12D20120A0400543FA
:103210000EE03248C169404604F05AFD05D32F48FC
:10322000016A404604F054FE02D20120A04005434A
:10323000641C032CBADB2846BDE8FE8F2DE9FC5F39
:1032400006460F46002522494968087801AB03224B
:103250000D21FEF727FD10B10720BDE8FC9F9DF86A
:10326000040000F01F008DF804009DF8050000F038
:103270001F008DF805009DF8060000F01F008DF876
:103280000600002462E056F8240057F82410A0EB52
:10329000010BBBF1000F01DB594601E0CBF100014E
:1032A000084604F0E9FC4FF08F41009004F0B2FBB7
:1032B000814601A8005DC0B30849086804F0F4FC29
:1032C00083465946064804F0A5FB80460FE00000FF
:1032D000200000207B14AE3E1D5A843F588D00080C
:1032E00000B04C45FE49404604F026FD804601A84A
:1032F000005D401EC0B201A908550028F2D1414628
:10330000484604F087FB83464FF07E5104F012FEDE
:1033100082462AF0004BF3488169584604F0D8FDF4
:1033200013D20120A04005430FE0FFE7ED480169FB
:10333000484604F0CDFC05D3EA484169484604F00C
:10334000C7FD02D20120A0400543641C032C9ADB78
:10335000284682E72DE9F04F87B005460C46914696
:1033600001208DF8100000208DF81100DE4A12684F
:10337000917CDD4A5268107804AB0222FEF747FDCB
:1033800020B14FF0FF3007B0BDE8F08FC820FEF746
:103390006AF800208DF81000D34A1268D17BD24A17
:1033A0005268107804AB0122FEF731FD10B14FF0E6
:1033B000FF30E8E7CC4A12685179CB4A526810785E
:1033C00004AB0122FEF723FD10B14FF0FF30DAE726
:1033D000C54A1268917CC44A5268107804AB012235
:1033E000FEF715FD10B14FF0FF30CCE7BE4A126872
:1033F000D17DBD4A5268107804AB0122FEF707FD6B
:1034000010B14FF0FF30BEE7B74A12681179B64AE3
:103410005268107804AB0122FEF7F9FC10B14FF0AE
:10342000FF30B0E70C208DF81000AF4A1268117918
:10343000AD4A5268107804AB0122FEF7E8FC10B1E7
:103440004FF0FF309FE70F20FEF70DF8A648806A87
:10345000407A8DF81000A44A12689178A24A526806
:10346000107804AB0122FEF7D2FC10B14FF0FF3010
:1034700089E79D48806A007A8DF810009A4A1268A0
:103480005178994A5268107804AB0122FEF7BFFCCC
:1034900010B14FF0FF3076E7B9F1000F07D0924836
:1034A000806A807A40F0E0008DF8100004E08E48D9
:1034B000806A807A8DF810008B4A126891798A4A66
:1034C0005268107804AB0122FEF7A1FC10B14FF056
:1034D000FF3058E7B9F1000F07D08348806AC07AFF
:1034E00040F0E0008DF8100003E07E48C07A8DF8CF
:1034F00010007D4A1268D1797B4A5268107804AB7B
:103500000122FEF784FC10B14FF0FF303BE7B9F128
:10351000000F02D0C820FDF7A6FF40208DF8100054
:10352000714A12681179704A5268107804AB01220E
:10353000FEF76DFC10B14FF0FF3024E778208DF8D6
:103540001000694A12685179674A5268107804ABD2
:103550000122FEF75CFC10B14FF0FF3013E7614928
:103560008889FDF780FF00208DF810005E4A126800
:1035700051795D4A5268107804AB0122FEF747FC8E
:1035800010B14FF0FF30FEE6574A1268917A564A62
:103590005268107804AB0222FEF784FB10B14FF0A2
:1035A000FF30F0E69DF811009DF8101040EA012B65
:1035B0000C209BFBF0F0C6B20020A8606860286079
:1035C000A06060602060824665E0474A1268D17A58
:1035D000454A5268107804AB0C22FEF763FB10B129
:1035E0004FF0FF30CFE69DF811009DF8101040EA33
:1035F000012000B2ADF808009DF813009DF81210EC
:1036000040EA012000B2ADF80A009DF815009DF8CF
:10361000141040EA012000B2ADF80C00BDF908100A
:10362000206808442060BDF90A10606808446060A2
:10363000BDF90C10A0680844A0609DF817009DF823
:10364000161040EA012000B2ADF800009DF8190004
:103650009DF8181040EA012000B2ADF802009DF874
:103660001B009DF81A1040EA012000B2ADF80400DA
:10367000BDF90010286808442860BDF90210686888
:1036800008446860BDF90410A8680844A8600AF1FD
:10369000010000F0FF0AB24597DB1248D0F800C0E5
:1036A0002868C117090441EA104107046246002353
:1036B000384602F0DCFC32460023CDE9020102F07C
:1036C000D6FC28600748D0F800C06868C117090414
:1036D00041EA1041070462460023384606E0000034
:1036E00054E3853F588D00082000002002F0BFFC05
:1036F00032460023CDE9020102F0B9FC6860FE48C1
:10370000D0F800C0A868C117090441EA10410704B5
:1037100062460023384602F0AAFC32460023CDE977
:10372000020102F0A4FCA860F348D0F804C02168AC
:10373000C817000440EA11480F04624600233846C7
:10374000414602F094FC32460023CDE9020102F02A
:103750008EFC2060E848D0F804C06068C1170904F6
:1037600041EA1041070462460023384602F07FFC1C
:1037700032460023CDE9020102F079FC6060DE48A8
:10378000D0F804C0A068C117090441EA1041070439
:1037900062460023384602F06AFC32460023CDE937
:1037A000020102F064FCA060A068002804DDA068AB
:1037B000A0F58030A06003E0A06800F58030A06034
:1037C0000020E0E538B50446CC4890F82400A0423B
:1037D00001D1002038BD24B3C84890F8250010B9A5
:1037E0004FF0FF30F6E70020FEF74AFB0020FEF71F
:1037F0006FFCC249C88CFEF7DCFE00200090BF4978
:10380000496808786B4601222321FEF700FB01215D
:10381000BA4880F824100120FEF732FBFEF7FCFCCA
:1038200013E00020FEF72CFBB448007C0090B34965
:10383000496808786B4601222321FEF7E8FA002147
:10384000AE4880F82410FEF7E7FC0020C2E72DE91F
:10385000F04F8DB083460F4602200C90A74890F899
:10386000240020B10020FFF7ADFF012600E0002674
:1038700003A8FFF7E2F905A8FFF7FFF901A8FFF792
:1038800020FA02A8FFF742FA9C4890F80AA004A880
:10389000FFF796FA002407E0002239465846FFF762
:1038A00059FD00B902E0641C022CF5DB00BF022CBC
:1038B00001D1002528E0002407E0012206A909A87B
:1038C000FFF748FD00B902E0641C022CF5DB00BFE5
:1038D000022C01D1002517E006A93846FFF75CFC51
:1038E00000F0FF0809A95846FFF7A8FC00F0FF09FF
:1038F0000025B9F1000F01D145F00105B8F1000F25
:1039000001D145F0020500BFFF207C490872FF216C
:103910007A484172C1724FF6FF71C181FF218172F5
:10392000017401210173BDF80C00FEF7D0FE9DF873
:103930001400FEF78AFEBDF80400FEF78EFDBDF808
:103940000800FEF736FE5046FEF75DFB9DF81000BE
:10395000FEF74EFD16B10120FFF734FF28460DB0EB
:10396000BDE8F08FF8B504460D46164616B94FF07F
:10397000FF30F8BD6148807A10B94FF0FF30F8E7AA
:1039800020128DF80000E0B28DF801009DF80100D2
:1039900028445A4949684989884202DD4FF0FF307E
:1039A000E7E7564A1268117E544A526810786B460F
:1039B0000222FEF72CFA10B14FF0FF30D9E7EAB23D
:1039C0004E4B1B68597D4D4B5B6818783346FEF7AC
:1039D0001EFA10B14FF0FF30CBE70020C9E7F8B571
:1039E00004460D46164616B94FF0FF30F8BD434861
:1039F000807A10B94FF0FF30F8E720128DF8000000
:103A0000E0B28DF801009DF8010028443B49496867
:103A10004989884202DD4FF0FF30E7E7374A1268F4
:103A2000117E364A526810786B460222FEF7EFF993
:103A300010B14FF0FF30D9E7EAB2304B1B68597D27
:103A40002E4B5B6818783346FEF72CF910B14FF017
:103A5000FF30CBE70020C9E72DE9F04385B00546EC
:103A60000E4690469946254890F8250020B14FF023
:103A7000FF3005B0BDE8F08316B94FF0FF30F8E72E
:103A8000002423E0281B102801DD102000E0281B63
:103A900087B2321939462046FFF764FF10B14FF064
:103AA000FF30E6E701AA39462046FFF798FF10B13C
:103AB0004FF0FF30DDE730193A4601A902F05CFC17
:103AC00010B16FF00100D4E7E01984B2AC42D9DB49
:103AD0004FEA28208DF8000008F0FF008DF8010063
:103AE000064A1268917E054A526810786B46022297
:103AF000FEF78DF938B103E0588D00082000002052
:103B00004FF0FF30B5E70121FE4880F82510A0F8FE
:103B100026900020ADE70146FA4890F8240008708E
:103B2000002070474FF0FF30704702464FF0FF30E3
:103B3000704701464FF0FF307047F8B505460F4615
:103B40001446002C70D0B5F5FF5F01DDFF2605E0BF
:103B5000202D01DA012601E0C5F3471607B9012738
:103B6000282C02DD4FF0FF30F8BDE648407D28BB31
:103B7000E44890F8240038B10020FFF723FE01212B
:103B8000E04880F8201003E00021DE4880F8201093
:103B9000DC481630FFF751F8DA481830FFF76DF8B7
:103BA000D8481A30FFF78DF8D6481C30FFF7AEF82A
:103BB000D448817A81771F30FFF702F90020FEF7A1
:103BC0005FF90020FEF788FC00208DF80000CD4A48
:103BD00012689178CB4A526810786B460122FEF742
:103BE00016F910B14FF0FF30BEE740208DF800000D
:103BF000C44A1268D17BC34A526810786B460122CE
:103C0000FEF705F900B165E08DF800608DF80170F0
:103C1000BC4A1268117ABB4A526810786B4602227D
:103C2000FEF7F5F808B155E047E00520FDF71BFC6D
:103C3000B448407A072101EBC000C0B28DF8000003
:103C4000B04A1268D179AF4A526810786B460122A7
:103C5000FEF7DDF800B13DE020208DF80000012CDA
:103C600003D100208DF801000EE0052C03DC0120BB
:103C70008DF8010008E0142C03DC02208DF801000F
:103C800002E003208DF801009DF80100072101EBFF
:103C90008010C0B28DF801009A4A1268917C994A4E
:103CA000526810786B460222FEF7B1F800B111E0BD
:103CB000012194484175002056E7924A16320021AE
:103CC00003E0505C00B105E0491C0C29F9D34FF02A
:103CD000FF3049E7FF208B490872FF218948417274
:103CE000C1724FF6FF71C181FF2181720174012100
:103CF00001730146887FFEF786F98249C88AFEF77C
:103D0000E6FC8049087EFEF7A0FC7E49488BFEF762
:103D1000A4FB7C49888BFEF74CFC7A49C87FFEF7F0
:103D200067FB784890F8200010B10120FFF74AFDAA
:103D3000002174484175002016E770B588B002A9CB
:103D400005A8FFF784FD0446032C3ED101A8FEF729
:103D5000F3FF059803F090FF0646019903F0ECFF8E
:103D6000054603F04DFF0590069803F085FF0646D3
:103D7000019903F0E1FF054603F042FF0690079822
:103D800003F07AFF0646019903F0D6FF054603F0DB
:103D900037FF079005A800F052FA6846FEF7E9FFE2
:103DA000BDF80010029848430290BDF80010039837
:103DB00048430390BDF8001004984843049002A8BB
:103DC00000F0D0FA002008B070BD0120FBE70146EA
:103DD00091F90020002A01DD00201EE091F9002069
:103DE000002A01DA042018E091F90120002A01DDFF
:103DF000012012E091F90120002A01DA05200CE0EF
:103E000091F90220002A01DD022006E091F902204A
:103E1000002A01DA062000E00720704710B50446AA
:103E20002046FFF7D4FF0346E01CFFF7D0FF43EA2C
:103E3000C00083B2A01DFFF7CAFF43EA801083B21F
:103E4000184610BD70B5002401F016F8FEF781FC8D
:103E5000002840D17820FEF7D6F8C4B20CB101207A
:103E600070BD7820FEF7C4FAC4B20CB10220F7E7A7
:103E70006420FEF79EFBC4B20CB10320F0E700F013
:103E800043F9C4B20CB10420EAE71F48FFF7C6FFAC
:103E9000054600F043F9C4B20CB10520E0E740F25A
:103EA000731000F07CFDC4B20CB10620D8E764208A
:103EB00000F0EEFAC4B20CB10720D1E7FFF73DFFE6
:103EC00004460CB10820CBE70120FFF77BFCC4B20D
:103ED0000CB10920C4E70020C2E72DE9F04F99B0EA
:103EE00004460D4616464FF07E574FF000084FF03F
:103EF00000094FF0000A12A813A918AB0EAACDE9C9
:103F0000001003E0200000204C00002014A916A897
:103F100000F0A4FE18B1012019B0BDE8F08FBDF883
:103F20004C0000F4807000287ED00E9803F0A4FEB0
:103F300083464FF09D4103F06DFD07460F9803F057
:103F40009BFE83464FF09D4103F064FD8046109830
:103F500003F092FE83464FF09D4103F05BFD8146E6
:103F6000119803F089FE83464FF09D4103F052FD06
:103F7000824639464FF0804003F0DEFE4946059008
:103F800003F0DAFE414607904FF0404003F0D4FEC4
:103F90005146059003F0D0FE0690079903F0CCFC43
:103FA000834603F09DFCCDE9080102F03FFC4FF091
:103FB0006632544BCDE90A0103F0B8F9CDE90C01A2
:103FC00002F062FF206049464FF0804003F0B4FEEB
:103FD0004946029003F0B0FE414604904FF0404045
:103FE00003F0AAFE4146029003F0A6FE0390049956
:103FF00003F0A0FF83464FF07E5103F09DFC059037
:1040000003F06EFCCDE9080139464FF0804003F023
:1040100093FE4146039003F08FFE494604904FF013
:10402000804003F089FE00E068E05146039003F011
:1040300083FE8346049903F07FFC059003F050FC57
:10404000CDE90601DDE9082302F038FE4FF06632C3
:104050002C4BCDE90A0103F069F9CDE90C0102F01E
:1040600013FF28605146504603F066FE494604900F
:10407000484603F061FE41460390404603F05CFE73
:1040800039460190384603F057FE0090019903F03D
:1040900053FC0290039903F04DFF8346049903F00B
:1040A00049FF059003F01CFCCDE908015146384654
:1040B00003F042FE49460490404603F03DFE039063
:1040C000049903F039FC4FF08041059003F034FE71
:1040D000834603F005FCCDE90601DDE9082302F083
:1040E000EDFD4FF06632074BCDE90A0103F01EF9F2
:1040F000CDE90C0102F0C8FE306001E002200BE7C0
:10410000002009E766A64C4010B5C8234FF4806232
:10411000F74940F6F630FFF79FFC10BD10B586B0AA
:104120000446F4A000680390F3A000680290F3A096
:1041300000680190F2A00068009004F0030003A959
:10414000085C8DF8140003A8C4F3C101405C8DF82D
:10415000150003A8C4F38111405C8DF8160004F02B
:10416000030002A9085C8DF8100002A8C4F3C10185
:10417000405C8DF8110002A8C4F38111405C8DF8F9
:10418000120005AA032140F22640FFF7EBFB18B10D
:104190004FF0FF3006B010BD04AA032140F22A40C0
:1041A000FFF7E0FB10B14FF0FF30F3E70198059007
:1041B0000098049004F0040058B19DF8140040F0F9
:1041C00001008DF814009DF8100040F001008DF8FA
:1041D000100004F0200058B19DF8150040F00100D7
:1041E0008DF815009DF8110040F001008DF81100C8
:1041F00004F4807058B19DF8160040F001008DF86D
:1042000016009DF8120040F001008DF8120005AA7A
:1042100003214FF48860FFF7A5FB10B14FF0FF308A
:10422000B8E704AA032140F23140FFF79BFB10B12D
:104230004FF0FF30AEE7B34804810020AAE71FB576
:104240000446B048007A00F0030054F820000190C2
:10425000AC48007A00F0040010B10198404201908F
:10426000A848007AC0F3C10054F820000290A54885
:10427000007A00F0200010B1029840420290A1485C
:10428000007AC0F3811054F8200003909D48008903
:1042900000F4807010B10398404203909A4901984D
:1042A00080FB0101800F40EA81000190964902984D
:1042B00080FB0110820042EA9170029092490398BB
:1042C00080FB0110820042EA917003900198000E79
:1042D0008DF800000198000C8DF801000198000A8B
:1042E0008DF802000198C0B28DF803006A460421DF
:1042F0004FF47470FFF736FB18B14FF0FF3004B085
:1043000010BD0298000E8DF800000298000C8DF888
:1043100001000298000A8DF802000298C0B28DF8E0
:1043200003006A4604214FF47570FFF71BFB10B1C0
:104330004FF0FF30E3E70398000E8DF8000003987C
:10434000000C8DF801000398000A8DF80200039814
:10435000C0B28DF803006A4604214FF47670FFF76F
:1043600001FBCCE770B588B0064601A8FEF701FD59
:10437000BDF804000021C90341EA5045C403614867
:10438000007A00F0030056F8200005905D48007A9E
:1043900000F0040010B10598404205905948007A99
:1043A000C0F3C10056F8200006905648007A00F08D
:1043B000200010B10698404206905248007AC0F39F
:1043C000811056F8200007904E48008900F4807054
:1043D00010B10798404207900598C117A0FB04232D
:1043E00001FB043100FB0510810041EA9270059049
:1043F0000698C117A0FB042301FB043100FB051044
:10440000810041EA927006900798C117A0FB04232F
:1044100001FB043100FB0510810041EA9270079016
:104420000598000E8DF808000598000C8DF809001D
:104430000598000A8DF80A000598C0B28DF80B00A7
:104440000698000E8DF80C000698000C8DF80D00F3
:104450000698000A8DF80E000698C0B28DF80F007D
:104460000798000E8DF810000798000C8DF81100C9
:104470000798000A8DF812000798C0B28DF8130053
:1044800002AA0C214FF42570FFF76CFA08B070BD3A
:1044900030B585B004461DA207CA02AB07C3C82CBD
:1044A00003DD4FF0FF3005B030BDC82090FBF4F0C5
:1044B000401E85B2280A8DF80000E8B28DF8010090
:1044C0006A46022140F21620FFF74CFA10B14FF075
:1044D000FF30E8E702AA0C2140F6C120FFF742FABC
:1044E00010B14FF0FF30DEE7064884810020DAE7A4
:1044F000808D00084CCD6C000CC92C00365676001F
:10450000264666004001002009E3CA02FEF2ABC461
:10451000AAF1DFDFBBAFDFDF0146FC4880890880FE
:10452000002070472DE9FC4706460F4606F00700BD
:1045300010B1B7F5C86F03DD4FF0FF30BDE8FC8761
:10454000384603F0B1FB8146F14903F063FA804637
:104550006846FEF792FB9DF80000022806D004286A
:1045600016D0082826D0102848D135E04FF08D41CC
:10457000404603F0E1FB814603F05EFB84B2E5496F
:10458000404603F0D9FB814603F056FB85B238E084
:104590004FF08C41404603F0CFFB814603F04CFBCB
:1045A00084B2DD49404603F0C7FB814603F044FB7B
:1045B00085B226E04FF08B41404603F0BDFB8146BB
:1045C00003F03AFB84B2D549404603F0B5FB81467F
:1045D00003F032FB85B214E04FF08A41404603F00D
:1045E000ABFB814603F028FB84B2CD49404603F083
:1045F000A3FB814603F020FB85B202E04FF0FF30C1
:104600009CE700BF20128DF80400E0B28DF8050091
:1046100028128DF80600E8B28DF8070006F00100B8
:10462000A0B101AA02214FF4EA70FFF79BF910B183
:104630004FF0FF3082E70DF1060202214FF4927035
:10464000FFF790F910B14FF0FF3077E706F0020066
:10465000A0B101AA02214FF4EC70FFF783F910B169
:104660004FF0FF306AE70DF1060202214FF494701B
:10467000FFF778F910B14FF0FF305FE706F0040064
:10468000A0B101AA02214FF4EE70FFF76BF910B14F
:104690004FF0FF3052E70DF1060202214FF4967001
:1046A000FFF760F910B14FF0FF3047E7002045E712
:1046B00038B504460020009004F0010020B19DF8B8
:1046C000000040F03000009004F0020020B19DF89E
:1046D000000040F00C00009004F0040020B19DF8B0
:1046E000000040F0030000906A4601214FF4A470DE
:1046F000FFF738F938BD38B50446012C01DA01243A
:1047000002E0042C00DD0424601EC0B200906A4662
:10471000012140F24F10FFF725F938BD38B50446A6
:10472000052094FBF0F085B228128DF80000E8B265
:104730008DF801006A4602214FF4EF70FFF712F97D
:1047400038BD38B50446052094FBF0F085B2281238
:104750008DF80000E8B28DF801006A4602214FF49E
:10476000ED70FFF7FFF838BDF8B505460E464FF47B
:104770007A7095FBF0F000FB06F4200E8DF8000037
:10478000200C8DF80100200A8DF80200E0B28DF8AF
:1047900003006A4604214FF4AE70FFF7E3F8F8BD5A
:1047A00038B50446052094FBF0F084B220128DF851
:1047B0000000E0B28DF801006A4602214FF4AD70AE
:1047C000FFF7D0F838BD38B50446052094FBF0F06B
:1047D00084B220128DF80000E0B28DF801006A4624
:1047E00002214FF4AC70FFF7BDF838BD38B5044670
:1047F00014B94FF0FF3038BD6A4604214FF45870A9
:10480000FFF7EDF810B14FF0FF30F4E79DF800002E
:1048100000069DF8011040EA01409DF8021040EAB0
:1048200001209DF80310084320600020E3E738B51D
:104830000446200E8DF80000200C8DF80100200A9F
:104840008DF80200E0B28DF803006A4604214FF4AF
:104850005870FFF787F838BD38B5044614B94FF0E3
:10486000FF3038BD6A4604214FF47170FFF7B7F886
:1048700010B14FF0FF30F4E79DF8000000069DF8FE
:10488000011040EA01409DF8021040EA01209DF825
:104890000310084300EB8000800020600020E0E768
:1048A00038B504461420B4FBF0F4200E8DF8000057
:1048B000200C8DF80100200A8DF80200E0B28DF87E
:1048C00003006A4604214FF47170FFF74BF838BDBE
:1048D00038B5044664B120208DF8000028208DF8FA
:1048E000010030208DF8020038208DF8030004E02C
:1048F000A3220421684601F06BFD6A46042140F6BC
:104900009E20FFF72FF8FDF787FC38BD40010020FF
:1049100000004843000040460000C04500004045FC
:104920000000C04438B5044664B1C0208DF80000D2
:10493000C2208DF80100C4208DF80200C6208DF839
:10494000030004E08B220421684601F041FD6A4621
:10495000042140F69820FFF705F8FDF75DFC38BD0F
:104960003EB504466CB1FDA1D1E900208968CDE9CE
:10497000002002916A4609214FF49760FEF7F2FF8A
:104980003EBDF9A2D2E900109268CDE90102009182
:104990006A4609214FF49760FEF7E4FFF0E73EB561
:1049A000044602208DF80000CA208DF80100E320A3
:1049B0008DF8020009208DF803006A460421682062
:1049C000FEF7D0FFA3208DF8000004F0400048B1AE
:1049D000C0208DF80100C8208DF80200C2208DF89B
:1049E000030006E0A3208DF801008DF802008DF889
:1049F000030004F4C07048B1C4208DF80400CC203A
:104A00008DF80500C6208DF8060006E0A3208DF87D
:104A100004008DF805008DF80600A3208DF807002E
:104A20008DF808008DF809006A460A2140F6A72093
:104A3000FEF798FF04F0030018B120208DF8000065
:104A400002E0D8208DF800006A46012140F6B62029
:104A5000FEF788FF04F0200018B10120FFF780FF67
:104A600002E00020FFF77CFF04F4C07008B304F4F8
:104A7000807060B1B2208DF800008B208DF80100AD
:104A8000B6208DF802009B208DF803000BE0B020CB
:104A90008DF8000080208DF80100B4208DF8020010
:104AA00090208DF803006A46042140F6A220FEF70C
:104AB00059FF04F0010020B3F8208DF800006A4689
:104AC00001214FF40B60FEF74DFFFA210720FFF79D
:104AD00029FD0720FFF7ECFD0120FFF70CFE642005
:104AE000FFF71CFE4FF4FA70FFF72BFEC821A14818
:104AF000FFF73AFE2820FFF753FE0A20FFF763FE78
:104B000008E0D8208DF800006A4601214FF40B60C0
:104B1000FEF728FF04F0020018B1D9208DF800003C
:104B200002E0D8208DF800006A46012140F23D7075
:104B3000FEF718FF04F0040018B10120FFF7F2FEA1
:104B400002E00020FFF7EEFE04F0100018B1012093
:104B5000FFF7BEFE02E00020FFF7BAFE44F00800B7
:104B600085494881FDF758FB00208349887304F08C
:104B7000400018B10846807B801D887304F4C07023
:104B800020B17D48807B801D7B49887304F0140030
:104B900020B17948807B10307749887304F0030096
:104BA00020B17548807B001D7349887300203EBD8D
:104BB0000146714840890880002070472DE9F04186
:104BC0000446E07800F0C006E07800F03F05607829
:104BD00000F0010098B1EF102846E91705EB51717C
:104BE000C910A5EBC101491C01F0FF08624800682B
:104BF00020B16148414602683846904700BF60785E
:104C000000F0080030B15C48406818B1B0115A4A51
:104C1000516888470020BDE8F08110B586B0044691
:104C200056A207CA03AB07C357A207CA8DE80700FD
:104C3000012C09D0022C0ED103AA0B2140F68220B0
:104C4000FEF790FE06B010BD6A460B2140F68220AA
:104C5000FEF788FEF6E74FF0FF30F3E72DE9F04F5F
:104C60008DB00746884615469946DDE9166B002447
:104C7000002030804049887B5A4605A9FEF7D5F9C7
:104C800018B1601E0DB0BDE8F08F3B48807A00F08F
:104C90001400002861D09DF8140000069DF815103E
:104CA00040EA01409DF8161040EA01209DF81710D7
:104CB000084328609DF8180000069DF8191040EA86
:104CC00001409DF81A1040EA01209DF81B1008438E
:104CD00068609DF81C0000069DF81D1040EA014028
:104CE0009DF81E1040EA01209DF81F100843A8609F
:104CF0009DF8200000069DF8211040EA01409DF833
:104D0000221040EA01209DF823100843E86004F1D6
:104D10001000C4B228680014019068680014029062
:104D2000A86800140390E8680014049001984043B8
:104D3000029901FB0100039901FB0100049901FBA9
:104D4000010ABAF1706F02DBBAF1885F22DDFDF76C
:104D500063FA00203080401E94E721E0B8AAB38DAA
:104D6000B4980D355D000000B8AAAAAAB088C3C5E2
:104D7000C700000009E3CA0240010020D8B1B9F31E
:104D80008BA391B609B4D900DAB1B9F38BA391B66C
:104D9000DAB4DA00B6F9000040F48070308000BF69
:104DA0003448807A00F0400020B305A9601C085CFC
:104DB000095D40EA012000B2A8F8000005A9E01C46
:104DC000095C05AAA01C105C41EA002000B2A8F80A
:104DD000020005A9601D095C201D105C41EA00204D
:104DE00000B2A8F80400A01DC4B2B6F9000040F05B
:104DF000080030801F48408900F4C07008B305A93E
:104E0000601C085C095D40EA012000B2388005A9F9
:104E1000E01C095C05AAA01C105C41EA002000B25D
:104E2000788005A9601D095C201D105C41EA002006
:104E300000B2B880A01DC4B2B6F9000040F0700006
:104E400030800C48807A00F0030018B105A90819D9
:104E5000FFF7B4FE4846FDF74CFD002012E701467F
:104E6000044801600020704701460248416000206C
:104E7000704700004001002008B50121082000F023
:104E80008DFE4FF44060ADF8000010208DF8030057
:104E900003208DF802006946914800F0C3FB012011
:104EA000904908609049C1F8AC0108BD10B58C4824
:104EB000001D006820F470408949091D08600846FB
:104EC000006840F44050086001208649091D0860D0
:104ED0008549C1F8A8010420FCF7A1FA0020814906
:104EE000091D08600420FCF79AFA00207E49C1F8E9
:104EF000A80110BD10B57A48001D006820F470406C
:104F00007749091D08600846006840F44050086071
:104F10000020744908607449C1F8AC010420FCF712
:104F20007EFA01206F4908606F49C1F8AC01042086
:104F3000FCF775FA10BD10B500246948001D006823
:104F400020F470406649091D08600846006840F476
:104F50000040086001206349091D0860FCF75FFA02
:104F600001206149C1F8A801FCF759FA07E0601C6B
:104F7000C4B2FA2C03DDFFF7BDFF012010BD594874
:104F80007C3800680028F2D15649086000BFF5E778
:104F900010B50020534908605148001D006820F4F6
:104FA00070404F49091D08600846006840F44050B1
:104FB000086000204C49C1F8AC010220FCF72FFA30
:104FC0000120484908600220FCF729FA00204649E0
:104FD000C1F8A80110BD10B5002042490860404842
:104FE000001D006820F470403D49091D0860084616
:104FF000006840F44050086001203B49C1F8AC0112
:105000000220FCF70CFA0120364908600220FCF768
:1050100006FA00203449C1F8A80110BD70B5044655
:105020002F48001D006820F470402D49091D0860BC
:105030000846006840F44050086000202949086094
:10504000002517E0E0092749091D08606006040EE5
:105050000220FCF7E4F901202349C1F8A80102204D
:10506000FCF7DDF900201F4908600220FCF7D7F9A2
:10507000681CC5B2082DE5DB70BD70B5054600247F
:105080001748001D006820F470401549091D08608C
:105090000846006840F400400860002616E0002042
:1050A000104908600220FCF7BAF901200E49C1F846
:1050B000A8016006040E0B487C38006808B1601C2B
:1050C000C4B20120FCF7ABF9701CC6B2082EE6DBB7
:1050D00015B9FFF780FF01E0FFF75AFF204670BDCA
:1050E000000C0140A88121420080214270B5044695
:1050F0000D4616468C4A1278A91A002901DB0A4689
:1051000000E04A42032A1ADC884A1278B01A0028C2
:1051100001DB024600E04242032A10DC0020844901
:1051200008708248017880480078FCF7BFFC81480D
:105130000078401C7F4908700120FCF794F97C48F6
:10514000007810BB78480078C0EBC00101EB00107C
:10515000604322305E2190FBF1F201FB120020300F
:10516000714908707148007800EB401060436F305F
:105170003F2190FBF1F201FB12006C490870012005
:10518000FCF771F901206A4908706848017866489F
:105190000078FCF76FFC70BD2DE9F04104460D4628
:1051A00016461F4639463046FCF780FC2946204605
:1051B000FCF760FC611B3944891B0E3101EB410196
:1051C0008906080E2A462146FFF790FF2A46214607
:1051D00059A000F071FFBDE8F0812DE9F0470646C7
:1051E0000F4614461D4694F8008095F80090002E56
:1051F00007DD0F2E02DD2878401E28702878401E1B
:105200002870002E08DA16F10F0F02DC2878401CF7
:1052100028702878401C2870002F07DD0F2F02DD32
:105220002078401E20702078401E2070002F08DA61
:1052300017F10F0F02DC2078401C20702078401CF2
:1052400020702878022801DC0220287020787F282E
:1052500001DD7F2020702078202801DC20202070B4
:1052600028783E2801DB3E2028700A20FCF7FBF856
:10527000297820784B464246FFF78EFF2D4800786C
:10528000BDE8F08710B53149087800EBD0714910BE
:105290000A2291FBF2F302FB131130312C4A5170B8
:1052A0002A49087800EBD07149100A2291FBF2F1EB
:1052B0003031274A11701F4800780A2190FBF1F223
:1052C00001FB12003030234988701A4800780A2107
:1052D00090FBF1F090FBF1F201FB120030301D4920
:1052E000487014480078642190FBF1F0303019497F
:1052F00008700020C87018A20521FCF7DBFA144AD8
:1053000006210020FCF7D6FA15A201210020FCF7A7
:10531000D1FA104A03210020FCF7CCFA0B480078A0
:1053200008B9FCF74AFA10BD5E0000205F000020BB
:1053300055000020560000200D0A2078203D202531
:10534000642C79203D2025640D0A000060000020B7
:10535000570000205A00002074696D6500000000AD
:1053600073636F72650000007FB505460C4601212E
:10537000022000F020FCADF80850ADF804400020F9
:10538000ADF80A00ADF8060001A93648FBF7F4F9BC
:10539000012211463348FBF766FD1D208DF8000001
:1053A00000208DF8010003208DF8020001208DF807
:1053B0000300684600F06DF801212A48FBF738FD2C
:1053C0007FBD10B5002401212648FBF7FAFF002815
:1053D00047D025480078401E2349087008460078C9
:1053E000F8B9224800780A2190FBF1F201FB120083
:1053F00030301F4988701D4800780A2190FBF1F079
:1054000090FBF1F201FB1200303019494870174847
:105410000078642190FBF1F0303015490870FCF7FA
:10542000CCF916E013A201210020FCF773FA104A10
:1054300003210020FCF76EFA002405E00C48015D12
:105440000FA000F039FE641C072CF7DB0DA000F064
:1054500033FE054800780028E4D001210148FBF71D
:10546000C1FF10BD00040040600000205600002075
:105470005A000020596F75722053636F72653A00AD
:10548000256300000D0A000031490143314A1160D3
:10549000704770B5002100230F22C47804B32D4C4F
:1054A000246804F4E064C4F5E064210AC1F1040353
:1054B000CA40447804FA03F1847814402143090176
:1054C000254C0678A155047804F01F050124AC4052
:1054D00005786D11AD0005F1E025C5F8004109E042
:1054E000047804F01F050124AC401C4D06787611A9
:1054F00045F8264070BD1A4A0A400243154B1B1F4F
:105500001A60704739B1134A121D12680243114BD9
:105510001B1D1A6006E00F4A121D126882430D4BD4
:105520001B1D1A607047042808D14FF0E02109695B
:1055300041F004014FF0E022116107E04FF0E0215B
:10554000096921F004014FF0E02211617047000069
:105550000000FA050CED00E000E400E080E100E06E
:1055600080FFFF1F10B50446CC48844208D10121BA
:10557000042000F02DFB0021042000F029FB46E070
:10558000C748844208D10121082000F021FB0021F6
:10559000082000F01DFB3AE0C248844208D10121F6
:1055A000102000F015FB0021102000F011FB2EE070
:1055B000BD48844208D10121202000F009FB0021D0
:1055C000202000F005FB22E0B848844208D10121E8
:1055D000402000F0FDFA0021402000F0F9FA16E02A
:1055E000B348844208D10121802000F0F1FA002163
:1055F000802000F0EDFA0AE0AE48844207D1012194
:10560000801500F0E5FA0021A01500F0E1FA10BDC8
:1056100010B50121084600F0DBFA0021012000F05E
:10562000D7FA10BD2DE9F0410246002500260020E2
:1056300000230024002791F803C00CF00F0591F817
:1056400003C00CF0100CBCF1000F03D091F802C0A5
:105650004CEA050591F800C0BCF1000F31D0146888
:1056600000202BE04FF0010C0CFA00F3B1F800C061
:105670000CEA03069E4220D183004FF00F0C0CFA77
:1056800003F7BC4305FA03FC4CEA040491F803C099
:10569000BCF1280F06D14FF0010C0CFA00FCC2F847
:1056A00014C00AE091F803C0BCF1480F05D14FF0D7
:1056B000010C0CFA00FCC2F810C0401C0828D1D321
:1056C0001460B1F800C0BCF1FF0F34DD5468002055
:1056D0002EE000F1080C4FF0010808FA0CF3B1F8C5
:1056E00000C00CEA03069E4221D183004FF00F0C4C
:1056F0000CFA03F7BC4305FA03FC4CEA040491F8E6
:1057000003C0BCF1280F05D100F1080C08FA0CF811
:10571000C2F8148091F803C0BCF1480F07D100F122
:10572000080C4FF0010808FA0CF8C2F81080401C71
:105730000828CED35460BDE8F0814FF6FF71018098
:10574000022181700421C1707047024600209368D5
:105750000B400BB1012000E0002070470146886833
:1057600080B2704702460020D3680B400BB1012085
:1057700000E0002070470146C86880B270470161B0
:105780007047416170470AB1016100E041617047B3
:10579000C16070474FF480320A4382618161826147
:1057A00082698269704702460020434B18684FF6B1
:1057B0008073184040EA021008433F4B186070475E
:1057C0003E49C8617047F0B50A4600230024002115
:1057D000002500F00046B6F1004F02D1364EF169C7
:1057E00001E0354E7168C0F3034583B200F4401602
:1057F000B6F5401F08D121F070612F4E766826F073
:1058000070662D4F7E6012E000F48016B6F5801FA2
:1058100006D1032606FA05F4A14341F0706106E0C3
:10582000460D360103FA06F6B14341F0706122B12C
:10583000460D360103FA06F6314300F00046B6F194
:10584000004F02D11C4EF16101E01B4E7160F0BDB2
:1058500030B500228B071C0F0F2303FA04F2164BFE
:1058600008338C1053F824309343134C08348D10B4
:1058700044F8253023468C1053F824308C07240F2D
:1058800000FA04F423430C4C08348D1044F82530FE
:1058900030BD0A49DC310860704700000008014053
:1058A000000C0140001001400014014000180140AC
:1058B000001C014000200140000001400000204287
:1058C000DF48006840F00100DD4908600846406894
:1058D000DC490840DA49486008460068DA4908406F
:1058E000D74908600846006820F480200860084610
:1058F000406820F4FE0048604FF41F008860704745
:10590000CF49096821F48031CD4A116011460968F8
:1059100021F480211160B0F5803F03D0B0F5802FD5
:105920000ED106E0C649096841F48031C44A1160CD
:1059300007E0C349096841F4A021C14A116000E0B1
:1059400000BF00BF704710B50146002200230020B1
:105950004A11012A02D1BA4C236806E0022A02D178
:10596000B74C236A01E0B64C636A01F01F020124C0
:1059700094401C400CB1012000E0002010BD38B55F
:10598000002000900024002500BF3120FFF7DBFF3E
:1059900005460098401C00900098B0F5A06F01D01B
:1059A000002DF2D03120FFF7CEFF08B1012400E036
:1059B0000024204638BD01460020A14A106820F08E
:1059C000F80040EAC10010607047A04908607047C5
:1059D000024600209A4B586820F47C1042EA0103EA
:1059E0001843974B586070479849086670470146BE
:1059F0000020934A506820F003000843506070472D
:105A00008F48406800F00C007047014600208C4A27
:105A1000506820F0F00008435060704701460020B5
:105A2000874A506820F4E0600843506070470146A0
:105A30000020834A506820F4605040EAC100506062
:105A4000704729B17E4A527A02437D4B5A7204E074
:105A50007B4A527A82437A4B5A7270477B49D831DB
:105A60000860704701460020754A506820F44040A5
:105A70000843506070470021714A20321170704A0B
:105A800082F82010012802D004280AD104E0012164
:105A90006B4A2032117005E00521694A20321170ED
:105AA00000E000BF00BF7047694908607047644963
:105AB000096A0143624A11627047654944390860C6
:105AC000704730B500210022002400235C4D6D6832
:105AD00005F00C0121B1042905D0082923D105E0E6
